{"contracts/Review.sol":{"Review":{"abi":[{"inputs":[{"internalType":"string","name":"_license","type":"string"},{"internalType":"uint256","name":"_roiDenominator","type":"uint256"},{"internalType":"uint64","name":"_vrfSubscriptionId","type":"uint64"},{"internalType":"address","name":"_vrfCoordinator","type":"address"},{"internalType":"bytes32","name":"_vrfKeyHash","type":"bytes32"}],"stateMutability":"nonpayable","type":"constructor"},{"inputs":[{"internalType":"address","name":"have","type":"address"},{"internalType":"address","name":"want","type":"address"}],"name":"OnlyCoordinatorCanFulfill","type":"error"},{"anonymous":false,"inputs":[{"indexed":false,"internalType":"uint256","name":"submissionId","type":"uint256"},{"indexed":false,"internalType":"bool","name":"result","type":"bool"}],"name":"ResultRevealed","type":"event"},{"anonymous":false,"inputs":[{"indexed":false,"internalType":"uint256","name":"submissionId","type":"uint256"}],"name":"SubmissionCreated","type":"event"},{"inputs":[],"name":"LICENSE","outputs":[{"internalType":"string","name":"","type":"string"}],"stateMutability":"view","type":"function"},{"inputs":[],"name":"ROI_DENOMINATOR","outputs":[{"internalType":"uint256","name":"","type":"uint256"}],"stateMutability":"view","type":"function"},{"inputs":[{"internalType":"address","name":"_author","type":"address"}],"name":"addAuthor","outputs":[],"stateMutability":"nonpayable","type":"function"},{"inputs":[{"internalType":"address","name":"_reviewer","type":"address"}],"name":"addReviewer","outputs":[],"stateMutability":"nonpayable","type":"function"},{"inputs":[{"internalType":"uint256","name":"submissionId","type":"uint256"}],"name":"assignRndSeed","outputs":[],"stateMutability":"nonpayable","type":"function"},{"inputs":[{"internalType":"uint256","name":"","type":"uint256"}],"name":"authors","outputs":[{"internalType":"address","name":"","type":"address"}],"stateMutability":"view","type":"function"},{"inputs":[{"internalType":"uint256","name":"submissionIndex","type":"uint256"},{"internalType":"uint8","name":"option","type":"uint8"}],"name":"castVote","outputs":[],"stateMutability":"nonpayable","type":"function"},{"inputs":[{"internalType":"uint256","name":"index","type":"uint256"}],"name":"getReviewer","outputs":[{"internalType":"address","name":"","type":"address"}],"stateMutability":"view","type":"function"},{"inputs":[{"internalType":"uint256","name":"submissionId","type":"uint256"}],"name":"getSelectedReviewers","outputs":[{"internalType":"address[]","name":"","type":"address[]"}],"stateMutability":"view","type":"function"},{"inputs":[{"internalType":"uint256","name":"submissionId","type":"uint256"}],"name":"getSubmission","outputs":[{"internalType":"address","name":"author","type":"address"},{"internalType":"string","name":"data","type":"string"}],"stateMutability":"view","type":"function"},{"inputs":[],"name":"owner","outputs":[{"internalType":"address","name":"","type":"address"}],"stateMutability":"view","type":"function"},{"inputs":[{"internalType":"uint256","name":"requestId","type":"uint256"},{"internalType":"uint256[]","name":"randomWords","type":"uint256[]"}],"name":"rawFulfillRandomWords","outputs":[],"stateMutability":"nonpayable","type":"function"},{"inputs":[{"internalType":"uint256","name":"submissionIndex","type":"uint256"}],"name":"revealResult","outputs":[],"stateMutability":"nonpayable","type":"function"},{"inputs":[{"internalType":"uint256","name":"","type":"uint256"}],"name":"reviewers","outputs":[{"internalType":"address","name":"addr","type":"address"}],"stateMutability":"view","type":"function"},{"inputs":[{"internalType":"uint256","name":"submissionId","type":"uint256"}],"name":"selectReviewers","outputs":[],"stateMutability":"nonpayable","type":"function"},{"inputs":[{"internalType":"uint256","name":"submissionIndex","type":"uint256"},{"internalType":"string[]","name":"options","type":"string[]"}],"name":"setOptions","outputs":[],"stateMutability":"nonpayable","type":"function"},{"inputs":[{"internalType":"uint256","name":"submissionIndex","type":"uint256"},{"internalType":"uint256","name":"threshold","type":"uint256"}],"name":"setThresholdToPass","outputs":[],"stateMutability":"nonpayable","type":"function"},{"inputs":[{"internalType":"uint256","name":"","type":"uint256"}],"name":"submissions","outputs":[{"internalType":"address","name":"author","type":"address"},{"internalType":"string","name":"data","type":"string"},{"internalType":"uint256","name":"thresholdToPass","type":"uint256"},{"internalType":"bool","name":"isApproved","type":"bool"},{"internalType":"uint256","name":"seed","type":"uint256"}],"stateMutability":"view","type":"function"},{"inputs":[{"internalType":"string","name":"_data","type":"string"}],"name":"submitData","outputs":[{"internalType":"uint256","name":"","type":"uint256"}],"stateMutability":"nonpayable","type":"function"}],"evm":{"bytecode":{"linkReferences":{},"object":"61010060405263ffffffff600660006101000a81548163ffffffff021916908363ffffffff1602179055503480156200003757600080fd5b50604051620035793803806200357983398181016040528101906200005d919062000403565b818073ffffffffffffffffffffffffffffffffffffffff1660808173ffffffffffffffffffffffffffffffffffffffff1681525050508460049081620000a49190620006eb565b508360058190555033600660046101000a81548173ffffffffffffffffffffffffffffffffffffffff021916908373ffffffffffffffffffffffffffffffffffffffff1602179055508173ffffffffffffffffffffffffffffffffffffffff1660a08173ffffffffffffffffffffffffffffffffffffffff16815250508060e081815250508267ffffffffffffffff1660c08167ffffffffffffffff16815250505050505050620007d2565b6000604051905090565b600080fd5b600080fd5b600080fd5b600080fd5b6000601f19601f8301169050919050565b7f4e487b7100000000000000000000000000000000000000000000000000000000600052604160045260246000fd5b620001b9826200016e565b810181811067ffffffffffffffff82111715620001db57620001da6200017f565b5b80604052505050565b6000620001f062000150565b9050620001fe8282620001ae565b919050565b600067ffffffffffffffff8211156200022157620002206200017f565b5b6200022c826200016e565b9050602081019050919050565b60005b83811015620002595780820151818401526020810190506200023c565b60008484015250505050565b60006200027c620002768462000203565b620001e4565b9050828152602081018484840111156200029b576200029a62000169565b5b620002a884828562000239565b509392505050565b600082601f830112620002c857620002c762000164565b5b8151620002da84826020860162000265565b91505092915050565b6000819050919050565b620002f881620002e3565b81146200030457600080fd5b50565b6000815190506200031881620002ed565b92915050565b600067ffffffffffffffff82169050919050565b6200033d816200031e565b81146200034957600080fd5b50565b6000815190506200035d8162000332565b92915050565b600073ffffffffffffffffffffffffffffffffffffffff82169050919050565b6000620003908262000363565b9050919050565b620003a28162000383565b8114620003ae57600080fd5b50565b600081519050620003c28162000397565b92915050565b6000819050919050565b620003dd81620003c8565b8114620003e957600080fd5b50565b600081519050620003fd81620003d2565b92915050565b600080600080600060a086880312156200042257620004216200015a565b5b600086015167ffffffffffffffff8111156200044357620004426200015f565b5b6200045188828901620002b0565b9550506020620004648882890162000307565b945050604062000477888289016200034c565b93505060606200048a88828901620003b1565b92505060806200049d88828901620003ec565b9150509295509295909350565b600081519050919050565b7f4e487b7100000000000000000000000000000000000000000000000000000000600052602260045260246000fd5b60006002820490506001821680620004fd57607f821691505b602082108103620005135762000512620004b5565b5b50919050565b60008190508160005260206000209050919050565b60006020601f8301049050919050565b600082821b905092915050565b6000600883026200057d7fffffffffffffffffffffffffffffffffffffffffffffffffffffffffffffffff826200053e565b6200058986836200053e565b95508019841693508086168417925050509392505050565b6000819050919050565b6000620005cc620005c6620005c084620002e3565b620005a1565b620002e3565b9050919050565b6000819050919050565b620005e883620005ab565b62000600620005f782620005d3565b8484546200054b565b825550505050565b600090565b6200061762000608565b62000624818484620005dd565b505050565b5b818110156200064c57620006406000826200060d565b6001810190506200062a565b5050565b601f8211156200069b57620006658162000519565b62000670846200052e565b8101602085101562000680578190505b620006986200068f856200052e565b83018262000629565b50505b505050565b600082821c905092915050565b6000620006c060001984600802620006a0565b1980831691505092915050565b6000620006db8383620006ad565b9150826002028217905092915050565b620006f682620004aa565b67ffffffffffffffff8111156200071257620007116200017f565b5b6200071e8254620004e4565b6200072b82828562000650565b600060209050601f8311600181146200076357600084156200074e578287015190505b6200075a8582620006cd565b865550620007ca565b601f198416620007738662000519565b60005b828110156200079d5784890151825560018201915060208501945060208101905062000776565b86831015620007bd5784890151620007b9601f891682620006ad565b8355505b6001600288020188555050505b505050505050565b60805160a05160c05160e051612d666200081360003960006106a0015260006106c10152600061066401526000818161046101526104b50152612d666000f3fe608060405234801561001057600080fd5b50600436106101215760003560e01c80636d10dece116100ad578063a2aac7ab11610071578063a2aac7ab14610317578063ad73349e14610347578063b84cb6941461037b578063d2b7e59a14610399578063fb7c72e5146103b557610121565b80636d10dece1461027557806373a82b5f146102915780638da5cb5b146102ad5780639550b002146102cb5780639cc616f6146102e757610121565b80632ddbc97e116100f45780632ddbc97e146101ac57806331d4655c146101c85780633db804da146101f85780633e8686cc14610228578063567813881461025957610121565b80630a912fc4146101265780631fe543e31461014457806326ee8b91146101605780632af74bb514610190575b600080fd5b61012e6103d1565b60405161013b9190611b08565b60405180910390f35b61015e60048036038101906101599190611cbc565b61045f565b005b61017a60048036038101906101759190611d18565b61051f565b6040516101879190611e35565b60405180910390f35b6101aa60048036038101906101a59190611d18565b610619565b005b6101c660048036038101906101c19190611e83565b610768565b005b6101e260048036038101906101dd9190611d18565b61085e565b6040516101ef9190611ebf565b60405180910390f35b610212600480360381019061020d9190611d18565b6108ae565b60405161021f9190611ebf565b60405180910390f35b610242600480360381019061023d9190611d18565b6108ed565b604051610250929190611eda565b60405180910390f35b610273600480360381019061026e9190611f43565b610a1d565b005b61028f600480360381019061028a9190611d18565b610bc4565b005b6102ab60048036038101906102a69190611e83565b610e71565b005b6102b5610f99565b6040516102c29190611ebf565b60405180910390f35b6102e560048036038101906102e09190611f83565b610fbf565b005b61030160048036038101906102fc9190611d18565b61107d565b60405161030e9190611ebf565b60405180910390f35b610331600480360381019061032c9190612078565b6110c7565b60405161033e91906120d0565b60405180910390f35b610361600480360381019061035c9190611d18565b611198565b604051610372959493929190612106565b60405180910390f35b610383611293565b60405161039091906120d0565b60405180910390f35b6103b360048036038101906103ae9190611d18565b611299565b005b6103cf60048036038101906103ca9190612241565b611451565b005b600480546103de906122cc565b80601f016020809104026020016040519081016040528092919081815260200182805461040a906122cc565b80156104575780601f1061042c57610100808354040283529160200191610457565b820191906000526020600020905b81548152906001019060200180831161043a57829003601f168201915b505050505081565b7f000000000000000000000000000000000000000000000000000000000000000073ffffffffffffffffffffffffffffffffffffffff163373ffffffffffffffffffffffffffffffffffffffff161461051157337f00000000000000000000000000000000000000000000000000000000000000006040517f1cf993f40000000000000000000000000000000000000000000000000000000081526004016105089291906122fd565b60405180910390fd5b61051b828261151f565b5050565b60606003805490508210610568576040517f08c379a000000000000000000000000000000000000000000000000000000000815260040161055f90612372565b60405180910390fd5b6003828154811061057c5761057b612392565b5b90600052602060002090600d020160090180548060200260200160405190810160405280929190818152602001828054801561060d57602002820191906000526020600020905b8160009054906101000a900473ffffffffffffffffffffffffffffffffffffffff1673ffffffffffffffffffffffffffffffffffffffff16815260200190600101908083116105c3575b50505050509050919050565b6003805490508110610660576040517f08c379a000000000000000000000000000000000000000000000000000000000815260040161065790612372565b60405180910390fd5b60007f000000000000000000000000000000000000000000000000000000000000000073ffffffffffffffffffffffffffffffffffffffff16635d3b1d307f00000000000000000000000000000000000000000000000000000000000000007f00000000000000000000000000000000000000000000000000000000000000006003620186a060016040518663ffffffff1660e01b8152600401610708959493929190612439565b6020604051808303816000875af1158015610727573d6000803e3d6000fd5b505050506040513d601f19601f8201168201806040525081019061074b91906124a1565b905081600080838152602001908152602001600020819055505050565b600660049054906101000a900473ffffffffffffffffffffffffffffffffffffffff1673ffffffffffffffffffffffffffffffffffffffff163373ffffffffffffffffffffffffffffffffffffffff16146107f8576040517f08c379a00000000000000000000000000000000000000000000000000000000081526004016107ef9061251a565b60405180910390fd5b6001819080600181540180825580915050600190039060005260206000200160009091909190916101000a81548173ffffffffffffffffffffffffffffffffffffffff021916908373ffffffffffffffffffffffffffffffffffffffff16021790555050565b6000806002838154811061087557610874612392565b5b9060005260206000200190508060000160009054906101000a900473ffffffffffffffffffffffffffffffffffffffff16915050919050565b600181815481106108be57600080fd5b906000526020600020016000915054906101000a900473ffffffffffffffffffffffffffffffffffffffff1681565b600060606003805490508310610938576040517f08c379a000000000000000000000000000000000000000000000000000000000815260040161092f90612586565b60405180910390fd5b60006003848154811061094e5761094d612392565b5b90600052602060002090600d020190508060000160009054906101000a900473ffffffffffffffffffffffffffffffffffffffff1681600101808054610993906122cc565b80601f01602080910402602001604051908101604052809291908181526020018280546109bf906122cc565b8015610a0c5780601f106109e157610100808354040283529160200191610a0c565b820191906000526020600020905b8154815290600101906020018083116109ef57829003601f168201915b505050505090509250925050915091565b60038281548110610a3157610a30612392565b5b90600052602060002090600d020160080160003373ffffffffffffffffffffffffffffffffffffffff1673ffffffffffffffffffffffffffffffffffffffff16815260200190815260200160002060009054906101000a900460ff16610acc576040517f08c379a0000000000000000000000000000000000000000000000000000000008152600401610ac390612618565b60405180910390fd5b60038281548110610ae057610adf612392565b5b90600052602060002090600d0201600201805490508160ff1610610b39576040517f08c379a0000000000000000000000000000000000000000000000000000000008152600401610b3090612684565b60405180910390fd5b600060038381548110610b4f57610b4e612392565b5b90600052602060002090600d020160080160003373ffffffffffffffffffffffffffffffffffffffff1673ffffffffffffffffffffffffffffffffffffffff16815260200190815260200160002060006101000a81548160ff021916908315150217905550610bc082826001611580565b5050565b600280549050600163ffffffff161115610c13576040517f08c379a0000000000000000000000000000000000000000000000000000000008152600401610c0a90612716565b60405180910390fd5b6003805490508110610c5a576040517f08c379a0000000000000000000000000000000000000000000000000000000008152600401610c5190612372565b60405180910390fd5b610c6381611637565b6000600163ffffffff1667ffffffffffffffff811115610c8657610c85611b79565b5b604051908082528060200260200182016040528015610cb45781602001602082028036833780820191505090505b50905060005b600163ffffffff168163ffffffff161015610e325760038381548110610ce357610ce2612392565b5b90600052602060002090600d0201600a018163ffffffff1681548110610d0c57610d0b612392565b5b9060005260206000200160009054906101000a900473ffffffffffffffffffffffffffffffffffffffff16828263ffffffff1681518110610d5057610d4f612392565b5b602002602001019073ffffffffffffffffffffffffffffffffffffffff16908173ffffffffffffffffffffffffffffffffffffffff1681525050600160038481548110610da057610d9f612392565b5b90600052602060002090600d02016008016000848463ffffffff1681518110610dcc57610dcb612392565b5b602002602001015173ffffffffffffffffffffffffffffffffffffffff1673ffffffffffffffffffffffffffffffffffffffff16815260200190815260200160002060006101000a81548160ff0219169083151502179055508080600101915050610cba565b508060038381548110610e4857610e47612392565b5b90600052602060002090600d02016009019080519060200190610e6c929190611914565b505050565b600660049054906101000a900473ffffffffffffffffffffffffffffffffffffffff1673ffffffffffffffffffffffffffffffffffffffff163373ffffffffffffffffffffffffffffffffffffffff1614610f01576040517f08c379a0000000000000000000000000000000000000000000000000000000008152600401610ef8906127a8565b60405180910390fd5b600260405180602001604052808373ffffffffffffffffffffffffffffffffffffffff168152509080600181540180825580915050600190039060005260206000200160009091909190915060008201518160000160006101000a81548173ffffffffffffffffffffffffffffffffffffffff021916908373ffffffffffffffffffffffffffffffffffffffff160217905550505050565b600660049054906101000a900473ffffffffffffffffffffffffffffffffffffffff1681565b600660049054906101000a900473ffffffffffffffffffffffffffffffffffffffff1673ffffffffffffffffffffffffffffffffffffffff163373ffffffffffffffffffffffffffffffffffffffff161461104f576040517f08c379a00000000000000000000000000000000000000000000000000000000081526004016110469061283a565b60405180910390fd5b806003838154811061106457611063612392565b5b90600052602060002090600d0201600301819055505050565b6002818154811061108d57600080fd5b906000526020600020016000915090508060000160009054906101000a900473ffffffffffffffffffffffffffffffffffffffff16905081565b60008060036001816001815401808255809150500390600052602060002090600d02019050338160000160006101000a81548173ffffffffffffffffffffffffffffffffffffffff021916908373ffffffffffffffffffffffffffffffffffffffff160217905550828160010190816111409190612a06565b50600060016003805490506111559190612b07565b90507fa60548f72b4d903f0447b295c585405a252b851618cb87aade049cf2a7cf988c8160405161118691906120d0565b60405180910390a18092505050919050565b600381815481106111a857600080fd5b90600052602060002090600d02016000915090508060000160009054906101000a900473ffffffffffffffffffffffffffffffffffffffff16908060010180546111f1906122cc565b80601f016020809104026020016040519081016040528092919081815260200182805461121d906122cc565b801561126a5780601f1061123f5761010080835404028352916020019161126a565b820191906000526020600020905b81548152906001019060200180831161124d57829003601f168201915b50505050509080600301549080600b0160009054906101000a900460ff169080600c0154905085565b60055481565b6000805b600383815481106112b1576112b0612392565b5b90600052602060002090600d0201600201805490508160ff161015611349576000600384815481106112e6576112e5612392565b5b90600052602060002090600d020160060160008360ff1660ff16815260200190815260200160002060009054906101000a900463ffffffff1663ffffffff16905080836113339190612b3b565b925050808061134190612b6f565b91505061129d565b50806003838154811061135f5761135e612392565b5b90600052602060002090600d0201600301546003848154811061138557611384612392565b5b90600052602060002090600d0201600901805490506113a49190612b98565b1115600383815481106113ba576113b9612392565b5b90600052602060002090600d0201600b0160006101000a81548160ff0219169083151502179055507fcf2e094a417fb9ddc4aab53efe164d3b66351971e47b3a24caf73ae37e91384d826003848154811061141857611417612392565b5b90600052602060002090600d0201600b0160009054906101000a900460ff16604051611445929190612bda565b60405180910390a15050565b600660049054906101000a900473ffffffffffffffffffffffffffffffffffffffff1673ffffffffffffffffffffffffffffffffffffffff163373ffffffffffffffffffffffffffffffffffffffff16146114e1576040517f08c379a00000000000000000000000000000000000000000000000000000000081526004016114d890612c4f565b60405180910390fd5b80600383815481106114f6576114f5612392565b5b90600052602060002090600d0201600201908051906020019061151a92919061199e565b505050565b60008060008481526020019081526020016000205490508160008151811061154a57611549612392565b5b60200260200101516003828154811061156657611565612392565b5b90600052602060002090600d0201600c0181905550505050565b806003848154811061159557611594612392565b5b90600052602060002090600d020160060160008460ff1660ff16815260200190815260200160002060009054906101000a900463ffffffff166115d89190612c6f565b600384815481106115ec576115eb612392565b5b90600052602060002090600d020160060160008460ff1660ff16815260200190815260200160002060006101000a81548163ffffffff021916908363ffffffff160217905550505050565b600380549050811061167e576040517f08c379a000000000000000000000000000000000000000000000000000000000815260040161167590612372565b60405180910390fd5b600060028054905067ffffffffffffffff81111561169f5761169e611b79565b5b6040519080825280602002602001820160405280156116cd5781602001602082028036833780820191505090505b50905060005b60028054905081101561177c57600281815481106116f4576116f3612392565b5b9060005260206000200160000160009054906101000a900473ffffffffffffffffffffffffffffffffffffffff1682828151811061173557611734612392565b5b602002602001019073ffffffffffffffffffffffffffffffffffffffff16908173ffffffffffffffffffffffffffffffffffffffff168152505080806001019150506116d3565b5060006003838154811061179357611792612392565b5b90600052602060002090600d0201600c0154905060005b82518110156118d45760006001826117c29190612b3b565b83836040516020016117d5929190612ca7565b6040516020818303038152906040528051906020012060001c6117f89190612cff565b905083818151811061180d5761180c612392565b5b602002602001015184838151811061182857611827612392565b5b602002602001015185848151811061184357611842612392565b5b6020026020010186848151811061185d5761185c612392565b5b602002602001018273ffffffffffffffffffffffffffffffffffffffff1673ffffffffffffffffffffffffffffffffffffffff168152508273ffffffffffffffffffffffffffffffffffffffff1673ffffffffffffffffffffffffffffffffffffffff1681525050505080806001019150506117aa565b5081600384815481106118ea576118e9612392565b5b90600052602060002090600d0201600a01908051906020019061190e929190611914565b50505050565b82805482825590600052602060002090810192821561198d579160200282015b8281111561198c5782518260006101000a81548173ffffffffffffffffffffffffffffffffffffffff021916908373ffffffffffffffffffffffffffffffffffffffff16021790555091602001919060010190611934565b5b50905061199a91906119f7565b5090565b8280548282559060005260206000209081019282156119e6579160200282015b828111156119e55782518290816119d59190612a06565b50916020019190600101906119be565b5b5090506119f39190611a14565b5090565b5b80821115611a105760008160009055506001016119f8565b5090565b5b80821115611a345760008181611a2b9190611a38565b50600101611a15565b5090565b508054611a44906122cc565b6000825580601f10611a565750611a75565b601f016020900490600052602060002090810190611a7491906119f7565b5b50565b600081519050919050565b600082825260208201905092915050565b60005b83811015611ab2578082015181840152602081019050611a97565b60008484015250505050565b6000601f19601f8301169050919050565b6000611ada82611a78565b611ae48185611a83565b9350611af4818560208601611a94565b611afd81611abe565b840191505092915050565b60006020820190508181036000830152611b228184611acf565b905092915050565b6000604051905090565b600080fd5b600080fd5b6000819050919050565b611b5181611b3e565b8114611b5c57600080fd5b50565b600081359050611b6e81611b48565b92915050565b600080fd5b7f4e487b7100000000000000000000000000000000000000000000000000000000600052604160045260246000fd5b611bb182611abe565b810181811067ffffffffffffffff82111715611bd057611bcf611b79565b5b80604052505050565b6000611be3611b2a565b9050611bef8282611ba8565b919050565b600067ffffffffffffffff821115611c0f57611c0e611b79565b5b602082029050602081019050919050565b600080fd5b6000611c38611c3384611bf4565b611bd9565b90508083825260208201905060208402830185811115611c5b57611c5a611c20565b5b835b81811015611c845780611c708882611b5f565b845260208401935050602081019050611c5d565b5050509392505050565b600082601f830112611ca357611ca2611b74565b5b8135611cb3848260208601611c25565b91505092915050565b60008060408385031215611cd357611cd2611b34565b5b6000611ce185828601611b5f565b925050602083013567ffffffffffffffff811115611d0257611d01611b39565b5b611d0e85828601611c8e565b9150509250929050565b600060208284031215611d2e57611d2d611b34565b5b6000611d3c84828501611b5f565b91505092915050565b600081519050919050565b600082825260208201905092915050565b6000819050602082019050919050565b600073ffffffffffffffffffffffffffffffffffffffff82169050919050565b6000611d9c82611d71565b9050919050565b611dac81611d91565b82525050565b6000611dbe8383611da3565b60208301905092915050565b6000602082019050919050565b6000611de282611d45565b611dec8185611d50565b9350611df783611d61565b8060005b83811015611e28578151611e0f8882611db2565b9750611e1a83611dca565b925050600181019050611dfb565b5085935050505092915050565b60006020820190508181036000830152611e4f8184611dd7565b905092915050565b611e6081611d91565b8114611e6b57600080fd5b50565b600081359050611e7d81611e57565b92915050565b600060208284031215611e9957611e98611b34565b5b6000611ea784828501611e6e565b91505092915050565b611eb981611d91565b82525050565b6000602082019050611ed46000830184611eb0565b92915050565b6000604082019050611eef6000830185611eb0565b8181036020830152611f018184611acf565b90509392505050565b600060ff82169050919050565b611f2081611f0a565b8114611f2b57600080fd5b50565b600081359050611f3d81611f17565b92915050565b60008060408385031215611f5a57611f59611b34565b5b6000611f6885828601611b5f565b9250506020611f7985828601611f2e565b9150509250929050565b60008060408385031215611f9a57611f99611b34565b5b6000611fa885828601611b5f565b9250506020611fb985828601611b5f565b9150509250929050565b600080fd5b600067ffffffffffffffff821115611fe357611fe2611b79565b5b611fec82611abe565b9050602081019050919050565b82818337600083830152505050565b600061201b61201684611fc8565b611bd9565b90508281526020810184848401111561203757612036611fc3565b5b612042848285611ff9565b509392505050565b600082601f83011261205f5761205e611b74565b5b813561206f848260208601612008565b91505092915050565b60006020828403121561208e5761208d611b34565b5b600082013567ffffffffffffffff8111156120ac576120ab611b39565b5b6120b88482850161204a565b91505092915050565b6120ca81611b3e565b82525050565b60006020820190506120e560008301846120c1565b92915050565b60008115159050919050565b612100816120eb565b82525050565b600060a08201905061211b6000830188611eb0565b818103602083015261212d8187611acf565b905061213c60408301866120c1565b61214960608301856120f7565b61215660808301846120c1565b9695505050505050565b600067ffffffffffffffff82111561217b5761217a611b79565b5b602082029050602081019050919050565b600061219f61219a84612160565b611bd9565b905080838252602082019050602084028301858111156121c2576121c1611c20565b5b835b8181101561220957803567ffffffffffffffff8111156121e7576121e6611b74565b5b8086016121f4898261204a565b855260208501945050506020810190506121c4565b5050509392505050565b600082601f83011261222857612227611b74565b5b813561223884826020860161218c565b91505092915050565b6000806040838503121561225857612257611b34565b5b600061226685828601611b5f565b925050602083013567ffffffffffffffff81111561228757612286611b39565b5b61229385828601612213565b9150509250929050565b7f4e487b7100000000000000000000000000000000000000000000000000000000600052602260045260246000fd5b600060028204905060018216806122e457607f821691505b6020821081036122f7576122f661229d565b5b50919050565b60006040820190506123126000830185611eb0565b61231f6020830184611eb0565b9392505050565b7f496e76616c6964207375626d697373696f6e2049440000000000000000000000600082015250565b600061235c601583611a83565b915061236782612326565b602082019050919050565b6000602082019050818103600083015261238b8161234f565b9050919050565b7f4e487b7100000000000000000000000000000000000000000000000000000000600052603260045260246000fd5b6000819050919050565b6123d4816123c1565b82525050565b600067ffffffffffffffff82169050919050565b6123f7816123da565b82525050565b600061ffff82169050919050565b612414816123fd565b82525050565b600063ffffffff82169050919050565b6124338161241a565b82525050565b600060a08201905061244e60008301886123cb565b61245b60208301876123ee565b612468604083018661240b565b612475606083018561242a565b612482608083018461242a565b9695505050505050565b60008151905061249b81611b48565b92915050565b6000602082840312156124b7576124b6611b34565b5b60006124c58482850161248c565b91505092915050565b7f4f6e6c7920746865206f776e65722063616e2061646420617574686f72732e00600082015250565b6000612504601f83611a83565b915061250f826124ce565b602082019050919050565b60006020820190508181036000830152612533816124f7565b9050919050565b7f5375626d697373696f6e20646f6573206e6f742065786973742e000000000000600082015250565b6000612570601a83611a83565b915061257b8261253a565b602082019050919050565b6000602082019050818103600083015261259f81612563565b9050919050565b7f4f6e6c792073656c6563746564207265766965776572732063616e206361737460008201527f20766f7465730000000000000000000000000000000000000000000000000000602082015250565b6000612602602683611a83565b915061260d826125a6565b604082019050919050565b60006020820190508181036000830152612631816125f5565b9050919050565b7f53656c65637420612076616c6964206f7074696f6e0000000000000000000000600082015250565b600061266e601583611a83565b915061267982612638565b602082019050919050565b6000602082019050818103600083015261269d81612661565b9050919050565b7f4e6f7420656e6f7567682072657669657765727320746f20726576696577207460008201527f686520736f6e6700000000000000000000000000000000000000000000000000602082015250565b6000612700602783611a83565b915061270b826126a4565b604082019050919050565b6000602082019050818103600083015261272f816126f3565b9050919050565b7f4f6e6c7920746865206f776e65722063616e206164642072657669657765727360008201527f2e00000000000000000000000000000000000000000000000000000000000000602082015250565b6000612792602183611a83565b915061279d82612736565b604082019050919050565b600060208201905081810360008301526127c181612785565b9050919050565b7f4f6e6c7920746865206f776e65722063616e207365742074686520746872657360008201527f686f6c6420746f20706173732e00000000000000000000000000000000000000602082015250565b6000612824602d83611a83565b915061282f826127c8565b604082019050919050565b6000602082019050818103600083015261285381612817565b9050919050565b60008190508160005260206000209050919050565b60006020601f8301049050919050565b600082821b905092915050565b6000600883026128bc7fffffffffffffffffffffffffffffffffffffffffffffffffffffffffffffffff8261287f565b6128c6868361287f565b95508019841693508086168417925050509392505050565b6000819050919050565b60006129036128fe6128f984611b3e565b6128de565b611b3e565b9050919050565b6000819050919050565b61291d836128e8565b6129316129298261290a565b84845461288c565b825550505050565b600090565b612946612939565b612951818484612914565b505050565b5b818110156129755761296a60008261293e565b600181019050612957565b5050565b601f8211156129ba5761298b8161285a565b6129948461286f565b810160208510156129a3578190505b6129b76129af8561286f565b830182612956565b50505b505050565b600082821c905092915050565b60006129dd600019846008026129bf565b1980831691505092915050565b60006129f683836129cc565b9150826002028217905092915050565b612a0f82611a78565b67ffffffffffffffff811115612a2857612a27611b79565b5b612a3282546122cc565b612a3d828285612979565b600060209050601f831160018114612a705760008415612a5e578287015190505b612a6885826129ea565b865550612ad0565b601f198416612a7e8661285a565b60005b82811015612aa657848901518255600182019150602085019450602081019050612a81565b86831015612ac35784890151612abf601f8916826129cc565b8355505b6001600288020188555050505b505050505050565b7f4e487b7100000000000000000000000000000000000000000000000000000000600052601160045260246000fd5b6000612b1282611b3e565b9150612b1d83611b3e565b9250828203905081811115612b3557612b34612ad8565b5b92915050565b6000612b4682611b3e565b9150612b5183611b3e565b9250828201905080821115612b6957612b68612ad8565b5b92915050565b6000612b7a82611f0a565b915060ff8203612b8d57612b8c612ad8565b5b600182019050919050565b6000612ba382611b3e565b9150612bae83611b3e565b9250828202612bbc81611b3e565b91508282048414831517612bd357612bd2612ad8565b5b5092915050565b6000604082019050612bef60008301856120c1565b612bfc60208301846120f7565b9392505050565b7f4f6e6c7920746865206f776e65722063616e20736574206f7074696f6e732e00600082015250565b6000612c39601f83611a83565b9150612c4482612c03565b602082019050919050565b60006020820190508181036000830152612c6881612c2c565b9050919050565b6000612c7a8261241a565b9150612c858361241a565b9250828201905063ffffffff811115612ca157612ca0612ad8565b5b92915050565b6000604082019050612cbc60008301856120c1565b612cc960208301846120c1565b9392505050565b7f4e487b7100000000000000000000000000000000000000000000000000000000600052601260045260246000fd5b6000612d0a82611b3e565b9150612d1583611b3e565b925082612d2557612d24612cd0565b5b82820690509291505056fea26469706673582212208a58eee5fc83418f2646ac1a1833f7485f8650d5556cd012696582b3bfbc786d64736f6c63430008180033","opcodes":"PUSH2 0x100 PUSH1 0x40 MSTORE PUSH4 0xFFFFFFFF PUSH1 0x6 PUSH1 0x0 PUSH2 0x100 EXP DUP2 SLOAD DUP2 PUSH4 0xFFFFFFFF MUL NOT AND SWAP1 DUP4 PUSH4 0xFFFFFFFF AND MUL OR SWAP1 SSTORE POP CALLVALUE DUP1 ISZERO PUSH3 0x37 JUMPI PUSH1 0x0 DUP1 REVERT JUMPDEST POP PUSH1 0x40 MLOAD PUSH3 0x3579 CODESIZE SUB DUP1 PUSH3 0x3579 DUP4 CODECOPY DUP2 DUP2 ADD PUSH1 0x40 MSTORE DUP2 ADD SWAP1 PUSH3 0x5D SWAP2 SWAP1 PUSH3 0x403 JUMP JUMPDEST DUP2 DUP1 PUSH20 0xFFFFFFFFFFFFFFFFFFFFFFFFFFFFFFFFFFFFFFFF AND PUSH1 0x80 DUP2 PUSH20 0xFFFFFFFFFFFFFFFFFFFFFFFFFFFFFFFFFFFFFFFF AND DUP2 MSTORE POP POP POP DUP5 PUSH1 0x4 SWAP1 DUP2 PUSH3 0xA4 SWAP2 SWAP1 PUSH3 0x6EB JUMP JUMPDEST POP DUP4 PUSH1 0x5 DUP2 SWAP1 SSTORE POP CALLER PUSH1 0x6 PUSH1 0x4 PUSH2 0x100 EXP DUP2 SLOAD DUP2 PUSH20 0xFFFFFFFFFFFFFFFFFFFFFFFFFFFFFFFFFFFFFFFF MUL NOT AND SWAP1 DUP4 PUSH20 0xFFFFFFFFFFFFFFFFFFFFFFFFFFFFFFFFFFFFFFFF AND MUL OR SWAP1 SSTORE POP DUP2 PUSH20 0xFFFFFFFFFFFFFFFFFFFFFFFFFFFFFFFFFFFFFFFF AND PUSH1 0xA0 DUP2 PUSH20 0xFFFFFFFFFFFFFFFFFFFFFFFFFFFFFFFFFFFFFFFF AND DUP2 MSTORE POP POP DUP1 PUSH1 0xE0 DUP2 DUP2 MSTORE POP POP DUP3 PUSH8 0xFFFFFFFFFFFFFFFF AND PUSH1 0xC0 DUP2 PUSH8 0xFFFFFFFFFFFFFFFF AND DUP2 MSTORE POP POP POP POP POP POP POP PUSH3 0x7D2 JUMP JUMPDEST PUSH1 0x0 PUSH1 0x40 MLOAD SWAP1 POP SWAP1 JUMP JUMPDEST PUSH1 0x0 DUP1 REVERT JUMPDEST PUSH1 0x0 DUP1 REVERT JUMPDEST PUSH1 0x0 DUP1 REVERT JUMPDEST PUSH1 0x0 DUP1 REVERT JUMPDEST PUSH1 0x0 PUSH1 0x1F NOT PUSH1 0x1F DUP4 ADD AND SWAP1 POP SWAP2 SWAP1 POP JUMP JUMPDEST PUSH32 0x4E487B7100000000000000000000000000000000000000000000000000000000 PUSH1 0x0 MSTORE PUSH1 0x41 PUSH1 0x4 MSTORE PUSH1 0x24 PUSH1 0x0 REVERT JUMPDEST PUSH3 0x1B9 DUP3 PUSH3 0x16E JUMP JUMPDEST DUP2 ADD DUP2 DUP2 LT PUSH8 0xFFFFFFFFFFFFFFFF DUP3 GT OR ISZERO PUSH3 0x1DB JUMPI PUSH3 0x1DA PUSH3 0x17F JUMP JUMPDEST JUMPDEST DUP1 PUSH1 0x40 MSTORE POP POP POP JUMP JUMPDEST PUSH1 0x0 PUSH3 0x1F0 PUSH3 0x150 JUMP JUMPDEST SWAP1 POP PUSH3 0x1FE DUP3 DUP3 PUSH3 0x1AE JUMP JUMPDEST SWAP2 SWAP1 POP JUMP JUMPDEST PUSH1 0x0 PUSH8 0xFFFFFFFFFFFFFFFF DUP3 GT ISZERO PUSH3 0x221 JUMPI PUSH3 0x220 PUSH3 0x17F JUMP JUMPDEST JUMPDEST PUSH3 0x22C DUP3 PUSH3 0x16E JUMP JUMPDEST SWAP1 POP PUSH1 0x20 DUP2 ADD SWAP1 POP SWAP2 SWAP1 POP JUMP JUMPDEST PUSH1 0x0 JUMPDEST DUP4 DUP2 LT ISZERO PUSH3 0x259 JUMPI DUP1 DUP3 ADD MLOAD DUP2 DUP5 ADD MSTORE PUSH1 0x20 DUP2 ADD SWAP1 POP PUSH3 0x23C JUMP JUMPDEST PUSH1 0x0 DUP5 DUP5 ADD MSTORE POP POP POP POP JUMP JUMPDEST PUSH1 0x0 PUSH3 0x27C PUSH3 0x276 DUP5 PUSH3 0x203 JUMP JUMPDEST PUSH3 0x1E4 JUMP JUMPDEST SWAP1 POP DUP3 DUP2 MSTORE PUSH1 0x20 DUP2 ADD DUP5 DUP5 DUP5 ADD GT ISZERO PUSH3 0x29B JUMPI PUSH3 0x29A PUSH3 0x169 JUMP JUMPDEST JUMPDEST PUSH3 0x2A8 DUP5 DUP3 DUP6 PUSH3 0x239 JUMP JUMPDEST POP SWAP4 SWAP3 POP POP POP JUMP JUMPDEST PUSH1 0x0 DUP3 PUSH1 0x1F DUP4 ADD SLT PUSH3 0x2C8 JUMPI PUSH3 0x2C7 PUSH3 0x164 JUMP JUMPDEST JUMPDEST DUP2 MLOAD PUSH3 0x2DA DUP5 DUP3 PUSH1 0x20 DUP7 ADD PUSH3 0x265 JUMP JUMPDEST SWAP2 POP POP SWAP3 SWAP2 POP POP JUMP JUMPDEST PUSH1 0x0 DUP2 SWAP1 POP SWAP2 SWAP1 POP JUMP JUMPDEST PUSH3 0x2F8 DUP2 PUSH3 0x2E3 JUMP JUMPDEST DUP2 EQ PUSH3 0x304 JUMPI PUSH1 0x0 DUP1 REVERT JUMPDEST POP JUMP JUMPDEST PUSH1 0x0 DUP2 MLOAD SWAP1 POP PUSH3 0x318 DUP2 PUSH3 0x2ED JUMP JUMPDEST SWAP3 SWAP2 POP POP JUMP JUMPDEST PUSH1 0x0 PUSH8 0xFFFFFFFFFFFFFFFF DUP3 AND SWAP1 POP SWAP2 SWAP1 POP JUMP JUMPDEST PUSH3 0x33D DUP2 PUSH3 0x31E JUMP JUMPDEST DUP2 EQ PUSH3 0x349 JUMPI PUSH1 0x0 DUP1 REVERT JUMPDEST POP JUMP JUMPDEST PUSH1 0x0 DUP2 MLOAD SWAP1 POP PUSH3 0x35D DUP2 PUSH3 0x332 JUMP JUMPDEST SWAP3 SWAP2 POP POP JUMP JUMPDEST PUSH1 0x0 PUSH20 0xFFFFFFFFFFFFFFFFFFFFFFFFFFFFFFFFFFFFFFFF DUP3 AND SWAP1 POP SWAP2 SWAP1 POP JUMP JUMPDEST PUSH1 0x0 PUSH3 0x390 DUP3 PUSH3 0x363 JUMP JUMPDEST SWAP1 POP SWAP2 SWAP1 POP JUMP JUMPDEST PUSH3 0x3A2 DUP2 PUSH3 0x383 JUMP JUMPDEST DUP2 EQ PUSH3 0x3AE JUMPI PUSH1 0x0 DUP1 REVERT JUMPDEST POP JUMP JUMPDEST PUSH1 0x0 DUP2 MLOAD SWAP1 POP PUSH3 0x3C2 DUP2 PUSH3 0x397 JUMP JUMPDEST SWAP3 SWAP2 POP POP JUMP JUMPDEST PUSH1 0x0 DUP2 SWAP1 POP SWAP2 SWAP1 POP JUMP JUMPDEST PUSH3 0x3DD DUP2 PUSH3 0x3C8 JUMP JUMPDEST DUP2 EQ PUSH3 0x3E9 JUMPI PUSH1 0x0 DUP1 REVERT JUMPDEST POP JUMP JUMPDEST PUSH1 0x0 DUP2 MLOAD SWAP1 POP PUSH3 0x3FD DUP2 PUSH3 0x3D2 JUMP JUMPDEST SWAP3 SWAP2 POP POP JUMP JUMPDEST PUSH1 0x0 DUP1 PUSH1 0x0 DUP1 PUSH1 0x0 PUSH1 0xA0 DUP7 DUP9 SUB SLT ISZERO PUSH3 0x422 JUMPI PUSH3 0x421 PUSH3 0x15A JUMP JUMPDEST JUMPDEST PUSH1 0x0 DUP7 ADD MLOAD PUSH8 0xFFFFFFFFFFFFFFFF DUP2 GT ISZERO PUSH3 0x443 JUMPI PUSH3 0x442 PUSH3 0x15F JUMP JUMPDEST JUMPDEST PUSH3 0x451 DUP9 DUP3 DUP10 ADD PUSH3 0x2B0 JUMP JUMPDEST SWAP6 POP POP PUSH1 0x20 PUSH3 0x464 DUP9 DUP3 DUP10 ADD PUSH3 0x307 JUMP JUMPDEST SWAP5 POP POP PUSH1 0x40 PUSH3 0x477 DUP9 DUP3 DUP10 ADD PUSH3 0x34C JUMP JUMPDEST SWAP4 POP POP PUSH1 0x60 PUSH3 0x48A DUP9 DUP3 DUP10 ADD PUSH3 0x3B1 JUMP JUMPDEST SWAP3 POP POP PUSH1 0x80 PUSH3 0x49D DUP9 DUP3 DUP10 ADD PUSH3 0x3EC JUMP JUMPDEST SWAP2 POP POP SWAP3 SWAP6 POP SWAP3 SWAP6 SWAP1 SWAP4 POP JUMP JUMPDEST PUSH1 0x0 DUP2 MLOAD SWAP1 POP SWAP2 SWAP1 POP JUMP JUMPDEST PUSH32 0x4E487B7100000000000000000000000000000000000000000000000000000000 PUSH1 0x0 MSTORE PUSH1 0x22 PUSH1 0x4 MSTORE PUSH1 0x24 PUSH1 0x0 REVERT JUMPDEST PUSH1 0x0 PUSH1 0x2 DUP3 DIV SWAP1 POP PUSH1 0x1 DUP3 AND DUP1 PUSH3 0x4FD JUMPI PUSH1 0x7F DUP3 AND SWAP2 POP JUMPDEST PUSH1 0x20 DUP3 LT DUP2 SUB PUSH3 0x513 JUMPI PUSH3 0x512 PUSH3 0x4B5 JUMP JUMPDEST JUMPDEST POP SWAP2 SWAP1 POP JUMP JUMPDEST PUSH1 0x0 DUP2 SWAP1 POP DUP2 PUSH1 0x0 MSTORE PUSH1 0x20 PUSH1 0x0 KECCAK256 SWAP1 POP SWAP2 SWAP1 POP JUMP JUMPDEST PUSH1 0x0 PUSH1 0x20 PUSH1 0x1F DUP4 ADD DIV SWAP1 POP SWAP2 SWAP1 POP JUMP JUMPDEST PUSH1 0x0 DUP3 DUP3 SHL SWAP1 POP SWAP3 SWAP2 POP POP JUMP JUMPDEST PUSH1 0x0 PUSH1 0x8 DUP4 MUL PUSH3 0x57D PUSH32 0xFFFFFFFFFFFFFFFFFFFFFFFFFFFFFFFFFFFFFFFFFFFFFFFFFFFFFFFFFFFFFFFF DUP3 PUSH3 0x53E JUMP JUMPDEST PUSH3 0x589 DUP7 DUP4 PUSH3 0x53E JUMP JUMPDEST SWAP6 POP DUP1 NOT DUP5 AND SWAP4 POP DUP1 DUP7 AND DUP5 OR SWAP3 POP POP POP SWAP4 SWAP3 POP POP POP JUMP JUMPDEST PUSH1 0x0 DUP2 SWAP1 POP SWAP2 SWAP1 POP JUMP JUMPDEST PUSH1 0x0 PUSH3 0x5CC PUSH3 0x5C6 PUSH3 0x5C0 DUP5 PUSH3 0x2E3 JUMP JUMPDEST PUSH3 0x5A1 JUMP JUMPDEST PUSH3 0x2E3 JUMP JUMPDEST SWAP1 POP SWAP2 SWAP1 POP JUMP JUMPDEST PUSH1 0x0 DUP2 SWAP1 POP SWAP2 SWAP1 POP JUMP JUMPDEST PUSH3 0x5E8 DUP4 PUSH3 0x5AB JUMP JUMPDEST PUSH3 0x600 PUSH3 0x5F7 DUP3 PUSH3 0x5D3 JUMP JUMPDEST DUP5 DUP5 SLOAD PUSH3 0x54B JUMP JUMPDEST DUP3 SSTORE POP POP POP POP JUMP JUMPDEST PUSH1 0x0 SWAP1 JUMP JUMPDEST PUSH3 0x617 PUSH3 0x608 JUMP JUMPDEST PUSH3 0x624 DUP2 DUP5 DUP5 PUSH3 0x5DD JUMP JUMPDEST POP POP POP JUMP JUMPDEST JUMPDEST DUP2 DUP2 LT ISZERO PUSH3 0x64C JUMPI PUSH3 0x640 PUSH1 0x0 DUP3 PUSH3 0x60D JUMP JUMPDEST PUSH1 0x1 DUP2 ADD SWAP1 POP PUSH3 0x62A JUMP JUMPDEST POP POP JUMP JUMPDEST PUSH1 0x1F DUP3 GT ISZERO PUSH3 0x69B JUMPI PUSH3 0x665 DUP2 PUSH3 0x519 JUMP JUMPDEST PUSH3 0x670 DUP5 PUSH3 0x52E JUMP JUMPDEST DUP2 ADD PUSH1 0x20 DUP6 LT ISZERO PUSH3 0x680 JUMPI DUP2 SWAP1 POP JUMPDEST PUSH3 0x698 PUSH3 0x68F DUP6 PUSH3 0x52E JUMP JUMPDEST DUP4 ADD DUP3 PUSH3 0x629 JUMP JUMPDEST POP POP JUMPDEST POP POP POP JUMP JUMPDEST PUSH1 0x0 DUP3 DUP3 SHR SWAP1 POP SWAP3 SWAP2 POP POP JUMP JUMPDEST PUSH1 0x0 PUSH3 0x6C0 PUSH1 0x0 NOT DUP5 PUSH1 0x8 MUL PUSH3 0x6A0 JUMP JUMPDEST NOT DUP1 DUP4 AND SWAP2 POP POP SWAP3 SWAP2 POP POP JUMP JUMPDEST PUSH1 0x0 PUSH3 0x6DB DUP4 DUP4 PUSH3 0x6AD JUMP JUMPDEST SWAP2 POP DUP3 PUSH1 0x2 MUL DUP3 OR SWAP1 POP SWAP3 SWAP2 POP POP JUMP JUMPDEST PUSH3 0x6F6 DUP3 PUSH3 0x4AA JUMP JUMPDEST PUSH8 0xFFFFFFFFFFFFFFFF DUP2 GT ISZERO PUSH3 0x712 JUMPI PUSH3 0x711 PUSH3 0x17F JUMP JUMPDEST JUMPDEST PUSH3 0x71E DUP3 SLOAD PUSH3 0x4E4 JUMP JUMPDEST PUSH3 0x72B DUP3 DUP3 DUP6 PUSH3 0x650 JUMP JUMPDEST PUSH1 0x0 PUSH1 0x20 SWAP1 POP PUSH1 0x1F DUP4 GT PUSH1 0x1 DUP2 EQ PUSH3 0x763 JUMPI PUSH1 0x0 DUP5 ISZERO PUSH3 0x74E JUMPI DUP3 DUP8 ADD MLOAD SWAP1 POP JUMPDEST PUSH3 0x75A DUP6 DUP3 PUSH3 0x6CD JUMP JUMPDEST DUP7 SSTORE POP PUSH3 0x7CA JUMP JUMPDEST PUSH1 0x1F NOT DUP5 AND PUSH3 0x773 DUP7 PUSH3 0x519 JUMP JUMPDEST PUSH1 0x0 JUMPDEST DUP3 DUP2 LT ISZERO PUSH3 0x79D JUMPI DUP5 DUP10 ADD MLOAD DUP3 SSTORE PUSH1 0x1 DUP3 ADD SWAP2 POP PUSH1 0x20 DUP6 ADD SWAP5 POP PUSH1 0x20 DUP2 ADD SWAP1 POP PUSH3 0x776 JUMP JUMPDEST DUP7 DUP4 LT ISZERO PUSH3 0x7BD JUMPI DUP5 DUP10 ADD MLOAD PUSH3 0x7B9 PUSH1 0x1F DUP10 AND DUP3 PUSH3 0x6AD JUMP JUMPDEST DUP4 SSTORE POP JUMPDEST PUSH1 0x1 PUSH1 0x2 DUP9 MUL ADD DUP9 SSTORE POP POP POP JUMPDEST POP POP POP POP POP POP JUMP JUMPDEST PUSH1 0x80 MLOAD PUSH1 0xA0 MLOAD PUSH1 0xC0 MLOAD PUSH1 0xE0 MLOAD PUSH2 0x2D66 PUSH3 0x813 PUSH1 0x0 CODECOPY PUSH1 0x0 PUSH2 0x6A0 ADD MSTORE PUSH1 0x0 PUSH2 0x6C1 ADD MSTORE PUSH1 0x0 PUSH2 0x664 ADD MSTORE PUSH1 0x0 DUP2 DUP2 PUSH2 0x461 ADD MSTORE PUSH2 0x4B5 ADD MSTORE PUSH2 0x2D66 PUSH1 0x0 RETURN INVALID PUSH1 0x80 PUSH1 0x40 MSTORE CALLVALUE DUP1 ISZERO PUSH2 0x10 JUMPI PUSH1 0x0 DUP1 REVERT JUMPDEST POP PUSH1 0x4 CALLDATASIZE LT PUSH2 0x121 JUMPI PUSH1 0x0 CALLDATALOAD PUSH1 0xE0 SHR DUP1 PUSH4 0x6D10DECE GT PUSH2 0xAD JUMPI DUP1 PUSH4 0xA2AAC7AB GT PUSH2 0x71 JUMPI DUP1 PUSH4 0xA2AAC7AB EQ PUSH2 0x317 JUMPI DUP1 PUSH4 0xAD73349E EQ PUSH2 0x347 JUMPI DUP1 PUSH4 0xB84CB694 EQ PUSH2 0x37B JUMPI DUP1 PUSH4 0xD2B7E59A EQ PUSH2 0x399 JUMPI DUP1 PUSH4 0xFB7C72E5 EQ PUSH2 0x3B5 JUMPI PUSH2 0x121 JUMP JUMPDEST DUP1 PUSH4 0x6D10DECE EQ PUSH2 0x275 JUMPI DUP1 PUSH4 0x73A82B5F EQ PUSH2 0x291 JUMPI DUP1 PUSH4 0x8DA5CB5B EQ PUSH2 0x2AD JUMPI DUP1 PUSH4 0x9550B002 EQ PUSH2 0x2CB JUMPI DUP1 PUSH4 0x9CC616F6 EQ PUSH2 0x2E7 JUMPI PUSH2 0x121 JUMP JUMPDEST DUP1 PUSH4 0x2DDBC97E GT PUSH2 0xF4 JUMPI DUP1 PUSH4 0x2DDBC97E EQ PUSH2 0x1AC JUMPI DUP1 PUSH4 0x31D4655C EQ PUSH2 0x1C8 JUMPI DUP1 PUSH4 0x3DB804DA EQ PUSH2 0x1F8 JUMPI DUP1 PUSH4 0x3E8686CC EQ PUSH2 0x228 JUMPI DUP1 PUSH4 0x56781388 EQ PUSH2 0x259 JUMPI PUSH2 0x121 JUMP JUMPDEST DUP1 PUSH4 0xA912FC4 EQ PUSH2 0x126 JUMPI DUP1 PUSH4 0x1FE543E3 EQ PUSH2 0x144 JUMPI DUP1 PUSH4 0x26EE8B91 EQ PUSH2 0x160 JUMPI DUP1 PUSH4 0x2AF74BB5 EQ PUSH2 0x190 JUMPI JUMPDEST PUSH1 0x0 DUP1 REVERT JUMPDEST PUSH2 0x12E PUSH2 0x3D1 JUMP JUMPDEST PUSH1 0x40 MLOAD PUSH2 0x13B SWAP2 SWAP1 PUSH2 0x1B08 JUMP JUMPDEST PUSH1 0x40 MLOAD DUP1 SWAP2 SUB SWAP1 RETURN JUMPDEST PUSH2 0x15E PUSH1 0x4 DUP1 CALLDATASIZE SUB DUP2 ADD SWAP1 PUSH2 0x159 SWAP2 SWAP1 PUSH2 0x1CBC JUMP JUMPDEST PUSH2 0x45F JUMP JUMPDEST STOP JUMPDEST PUSH2 0x17A PUSH1 0x4 DUP1 CALLDATASIZE SUB DUP2 ADD SWAP1 PUSH2 0x175 SWAP2 SWAP1 PUSH2 0x1D18 JUMP JUMPDEST PUSH2 0x51F JUMP JUMPDEST PUSH1 0x40 MLOAD PUSH2 0x187 SWAP2 SWAP1 PUSH2 0x1E35 JUMP JUMPDEST PUSH1 0x40 MLOAD DUP1 SWAP2 SUB SWAP1 RETURN JUMPDEST PUSH2 0x1AA PUSH1 0x4 DUP1 CALLDATASIZE SUB DUP2 ADD SWAP1 PUSH2 0x1A5 SWAP2 SWAP1 PUSH2 0x1D18 JUMP JUMPDEST PUSH2 0x619 JUMP JUMPDEST STOP JUMPDEST PUSH2 0x1C6 PUSH1 0x4 DUP1 CALLDATASIZE SUB DUP2 ADD SWAP1 PUSH2 0x1C1 SWAP2 SWAP1 PUSH2 0x1E83 JUMP JUMPDEST PUSH2 0x768 JUMP JUMPDEST STOP JUMPDEST PUSH2 0x1E2 PUSH1 0x4 DUP1 CALLDATASIZE SUB DUP2 ADD SWAP1 PUSH2 0x1DD SWAP2 SWAP1 PUSH2 0x1D18 JUMP JUMPDEST PUSH2 0x85E JUMP JUMPDEST PUSH1 0x40 MLOAD PUSH2 0x1EF SWAP2 SWAP1 PUSH2 0x1EBF JUMP JUMPDEST PUSH1 0x40 MLOAD DUP1 SWAP2 SUB SWAP1 RETURN JUMPDEST PUSH2 0x212 PUSH1 0x4 DUP1 CALLDATASIZE SUB DUP2 ADD SWAP1 PUSH2 0x20D SWAP2 SWAP1 PUSH2 0x1D18 JUMP JUMPDEST PUSH2 0x8AE JUMP JUMPDEST PUSH1 0x40 MLOAD PUSH2 0x21F SWAP2 SWAP1 PUSH2 0x1EBF JUMP JUMPDEST PUSH1 0x40 MLOAD DUP1 SWAP2 SUB SWAP1 RETURN JUMPDEST PUSH2 0x242 PUSH1 0x4 DUP1 CALLDATASIZE SUB DUP2 ADD SWAP1 PUSH2 0x23D SWAP2 SWAP1 PUSH2 0x1D18 JUMP JUMPDEST PUSH2 0x8ED JUMP JUMPDEST PUSH1 0x40 MLOAD PUSH2 0x250 SWAP3 SWAP2 SWAP1 PUSH2 0x1EDA JUMP JUMPDEST PUSH1 0x40 MLOAD DUP1 SWAP2 SUB SWAP1 RETURN JUMPDEST PUSH2 0x273 PUSH1 0x4 DUP1 CALLDATASIZE SUB DUP2 ADD SWAP1 PUSH2 0x26E SWAP2 SWAP1 PUSH2 0x1F43 JUMP JUMPDEST PUSH2 0xA1D JUMP JUMPDEST STOP JUMPDEST PUSH2 0x28F PUSH1 0x4 DUP1 CALLDATASIZE SUB DUP2 ADD SWAP1 PUSH2 0x28A SWAP2 SWAP1 PUSH2 0x1D18 JUMP JUMPDEST PUSH2 0xBC4 JUMP JUMPDEST STOP JUMPDEST PUSH2 0x2AB PUSH1 0x4 DUP1 CALLDATASIZE SUB DUP2 ADD SWAP1 PUSH2 0x2A6 SWAP2 SWAP1 PUSH2 0x1E83 JUMP JUMPDEST PUSH2 0xE71 JUMP JUMPDEST STOP JUMPDEST PUSH2 0x2B5 PUSH2 0xF99 JUMP JUMPDEST PUSH1 0x40 MLOAD PUSH2 0x2C2 SWAP2 SWAP1 PUSH2 0x1EBF JUMP JUMPDEST PUSH1 0x40 MLOAD DUP1 SWAP2 SUB SWAP1 RETURN JUMPDEST PUSH2 0x2E5 PUSH1 0x4 DUP1 CALLDATASIZE SUB DUP2 ADD SWAP1 PUSH2 0x2E0 SWAP2 SWAP1 PUSH2 0x1F83 JUMP JUMPDEST PUSH2 0xFBF JUMP JUMPDEST STOP JUMPDEST PUSH2 0x301 PUSH1 0x4 DUP1 CALLDATASIZE SUB DUP2 ADD SWAP1 PUSH2 0x2FC SWAP2 SWAP1 PUSH2 0x1D18 JUMP JUMPDEST PUSH2 0x107D JUMP JUMPDEST PUSH1 0x40 MLOAD PUSH2 0x30E SWAP2 SWAP1 PUSH2 0x1EBF JUMP JUMPDEST PUSH1 0x40 MLOAD DUP1 SWAP2 SUB SWAP1 RETURN JUMPDEST PUSH2 0x331 PUSH1 0x4 DUP1 CALLDATASIZE SUB DUP2 ADD SWAP1 PUSH2 0x32C SWAP2 SWAP1 PUSH2 0x2078 JUMP JUMPDEST PUSH2 0x10C7 JUMP JUMPDEST PUSH1 0x40 MLOAD PUSH2 0x33E SWAP2 SWAP1 PUSH2 0x20D0 JUMP JUMPDEST PUSH1 0x40 MLOAD DUP1 SWAP2 SUB SWAP1 RETURN JUMPDEST PUSH2 0x361 PUSH1 0x4 DUP1 CALLDATASIZE SUB DUP2 ADD SWAP1 PUSH2 0x35C SWAP2 SWAP1 PUSH2 0x1D18 JUMP JUMPDEST PUSH2 0x1198 JUMP JUMPDEST PUSH1 0x40 MLOAD PUSH2 0x372 SWAP6 SWAP5 SWAP4 SWAP3 SWAP2 SWAP1 PUSH2 0x2106 JUMP JUMPDEST PUSH1 0x40 MLOAD DUP1 SWAP2 SUB SWAP1 RETURN JUMPDEST PUSH2 0x383 PUSH2 0x1293 JUMP JUMPDEST PUSH1 0x40 MLOAD PUSH2 0x390 SWAP2 SWAP1 PUSH2 0x20D0 JUMP JUMPDEST PUSH1 0x40 MLOAD DUP1 SWAP2 SUB SWAP1 RETURN JUMPDEST PUSH2 0x3B3 PUSH1 0x4 DUP1 CALLDATASIZE SUB DUP2 ADD SWAP1 PUSH2 0x3AE SWAP2 SWAP1 PUSH2 0x1D18 JUMP JUMPDEST PUSH2 0x1299 JUMP JUMPDEST STOP JUMPDEST PUSH2 0x3CF PUSH1 0x4 DUP1 CALLDATASIZE SUB DUP2 ADD SWAP1 PUSH2 0x3CA SWAP2 SWAP1 PUSH2 0x2241 JUMP JUMPDEST PUSH2 0x1451 JUMP JUMPDEST STOP JUMPDEST PUSH1 0x4 DUP1 SLOAD PUSH2 0x3DE SWAP1 PUSH2 0x22CC JUMP JUMPDEST DUP1 PUSH1 0x1F ADD PUSH1 0x20 DUP1 SWAP2 DIV MUL PUSH1 0x20 ADD PUSH1 0x40 MLOAD SWAP1 DUP2 ADD PUSH1 0x40 MSTORE DUP1 SWAP3 SWAP2 SWAP1 DUP2 DUP2 MSTORE PUSH1 0x20 ADD DUP3 DUP1 SLOAD PUSH2 0x40A SWAP1 PUSH2 0x22CC JUMP JUMPDEST DUP1 ISZERO PUSH2 0x457 JUMPI DUP1 PUSH1 0x1F LT PUSH2 0x42C JUMPI PUSH2 0x100 DUP1 DUP4 SLOAD DIV MUL DUP4 MSTORE SWAP2 PUSH1 0x20 ADD SWAP2 PUSH2 0x457 JUMP JUMPDEST DUP3 ADD SWAP2 SWAP1 PUSH1 0x0 MSTORE PUSH1 0x20 PUSH1 0x0 KECCAK256 SWAP1 JUMPDEST DUP2 SLOAD DUP2 MSTORE SWAP1 PUSH1 0x1 ADD SWAP1 PUSH1 0x20 ADD DUP1 DUP4 GT PUSH2 0x43A JUMPI DUP3 SWAP1 SUB PUSH1 0x1F AND DUP3 ADD SWAP2 JUMPDEST POP POP POP POP POP DUP2 JUMP JUMPDEST PUSH32 0x0 PUSH20 0xFFFFFFFFFFFFFFFFFFFFFFFFFFFFFFFFFFFFFFFF AND CALLER PUSH20 0xFFFFFFFFFFFFFFFFFFFFFFFFFFFFFFFFFFFFFFFF AND EQ PUSH2 0x511 JUMPI CALLER PUSH32 0x0 PUSH1 0x40 MLOAD PUSH32 0x1CF993F400000000000000000000000000000000000000000000000000000000 DUP2 MSTORE PUSH1 0x4 ADD PUSH2 0x508 SWAP3 SWAP2 SWAP1 PUSH2 0x22FD JUMP JUMPDEST PUSH1 0x40 MLOAD DUP1 SWAP2 SUB SWAP1 REVERT JUMPDEST PUSH2 0x51B DUP3 DUP3 PUSH2 0x151F JUMP JUMPDEST POP POP JUMP JUMPDEST PUSH1 0x60 PUSH1 0x3 DUP1 SLOAD SWAP1 POP DUP3 LT PUSH2 0x568 JUMPI PUSH1 0x40 MLOAD PUSH32 0x8C379A000000000000000000000000000000000000000000000000000000000 DUP2 MSTORE PUSH1 0x4 ADD PUSH2 0x55F SWAP1 PUSH2 0x2372 JUMP JUMPDEST PUSH1 0x40 MLOAD DUP1 SWAP2 SUB SWAP1 REVERT JUMPDEST PUSH1 0x3 DUP3 DUP2 SLOAD DUP2 LT PUSH2 0x57C JUMPI PUSH2 0x57B PUSH2 0x2392 JUMP JUMPDEST JUMPDEST SWAP1 PUSH1 0x0 MSTORE PUSH1 0x20 PUSH1 0x0 KECCAK256 SWAP1 PUSH1 0xD MUL ADD PUSH1 0x9 ADD DUP1 SLOAD DUP1 PUSH1 0x20 MUL PUSH1 0x20 ADD PUSH1 0x40 MLOAD SWAP1 DUP2 ADD PUSH1 0x40 MSTORE DUP1 SWAP3 SWAP2 SWAP1 DUP2 DUP2 MSTORE PUSH1 0x20 ADD DUP3 DUP1 SLOAD DUP1 ISZERO PUSH2 0x60D JUMPI PUSH1 0x20 MUL DUP3 ADD SWAP2 SWAP1 PUSH1 0x0 MSTORE PUSH1 0x20 PUSH1 0x0 KECCAK256 SWAP1 JUMPDEST DUP2 PUSH1 0x0 SWAP1 SLOAD SWAP1 PUSH2 0x100 EXP SWAP1 DIV PUSH20 0xFFFFFFFFFFFFFFFFFFFFFFFFFFFFFFFFFFFFFFFF AND PUSH20 0xFFFFFFFFFFFFFFFFFFFFFFFFFFFFFFFFFFFFFFFF AND DUP2 MSTORE PUSH1 0x20 ADD SWAP1 PUSH1 0x1 ADD SWAP1 DUP1 DUP4 GT PUSH2 0x5C3 JUMPI JUMPDEST POP POP POP POP POP SWAP1 POP SWAP2 SWAP1 POP JUMP JUMPDEST PUSH1 0x3 DUP1 SLOAD SWAP1 POP DUP2 LT PUSH2 0x660 JUMPI PUSH1 0x40 MLOAD PUSH32 0x8C379A000000000000000000000000000000000000000000000000000000000 DUP2 MSTORE PUSH1 0x4 ADD PUSH2 0x657 SWAP1 PUSH2 0x2372 JUMP JUMPDEST PUSH1 0x40 MLOAD DUP1 SWAP2 SUB SWAP1 REVERT JUMPDEST PUSH1 0x0 PUSH32 0x0 PUSH20 0xFFFFFFFFFFFFFFFFFFFFFFFFFFFFFFFFFFFFFFFF AND PUSH4 0x5D3B1D30 PUSH32 0x0 PUSH32 0x0 PUSH1 0x3 PUSH3 0x186A0 PUSH1 0x1 PUSH1 0x40 MLOAD DUP7 PUSH4 0xFFFFFFFF AND PUSH1 0xE0 SHL DUP2 MSTORE PUSH1 0x4 ADD PUSH2 0x708 SWAP6 SWAP5 SWAP4 SWAP3 SWAP2 SWAP1 PUSH2 0x2439 JUMP JUMPDEST PUSH1 0x20 PUSH1 0x40 MLOAD DUP1 DUP4 SUB DUP2 PUSH1 0x0 DUP8 GAS CALL ISZERO DUP1 ISZERO PUSH2 0x727 JUMPI RETURNDATASIZE PUSH1 0x0 DUP1 RETURNDATACOPY RETURNDATASIZE PUSH1 0x0 REVERT JUMPDEST POP POP POP POP PUSH1 0x40 MLOAD RETURNDATASIZE PUSH1 0x1F NOT PUSH1 0x1F DUP3 ADD AND DUP3 ADD DUP1 PUSH1 0x40 MSTORE POP DUP2 ADD SWAP1 PUSH2 0x74B SWAP2 SWAP1 PUSH2 0x24A1 JUMP JUMPDEST SWAP1 POP DUP2 PUSH1 0x0 DUP1 DUP4 DUP2 MSTORE PUSH1 0x20 ADD SWAP1 DUP2 MSTORE PUSH1 0x20 ADD PUSH1 0x0 KECCAK256 DUP2 SWAP1 SSTORE POP POP POP JUMP JUMPDEST PUSH1 0x6 PUSH1 0x4 SWAP1 SLOAD SWAP1 PUSH2 0x100 EXP SWAP1 DIV PUSH20 0xFFFFFFFFFFFFFFFFFFFFFFFFFFFFFFFFFFFFFFFF AND PUSH20 0xFFFFFFFFFFFFFFFFFFFFFFFFFFFFFFFFFFFFFFFF AND CALLER PUSH20 0xFFFFFFFFFFFFFFFFFFFFFFFFFFFFFFFFFFFFFFFF AND EQ PUSH2 0x7F8 JUMPI PUSH1 0x40 MLOAD PUSH32 0x8C379A000000000000000000000000000000000000000000000000000000000 DUP2 MSTORE PUSH1 0x4 ADD PUSH2 0x7EF SWAP1 PUSH2 0x251A JUMP JUMPDEST PUSH1 0x40 MLOAD DUP1 SWAP2 SUB SWAP1 REVERT JUMPDEST PUSH1 0x1 DUP2 SWAP1 DUP1 PUSH1 0x1 DUP2 SLOAD ADD DUP1 DUP3 SSTORE DUP1 SWAP2 POP POP PUSH1 0x1 SWAP1 SUB SWAP1 PUSH1 0x0 MSTORE PUSH1 0x20 PUSH1 0x0 KECCAK256 ADD PUSH1 0x0 SWAP1 SWAP2 SWAP1 SWAP2 SWAP1 SWAP2 PUSH2 0x100 EXP DUP2 SLOAD DUP2 PUSH20 0xFFFFFFFFFFFFFFFFFFFFFFFFFFFFFFFFFFFFFFFF MUL NOT AND SWAP1 DUP4 PUSH20 0xFFFFFFFFFFFFFFFFFFFFFFFFFFFFFFFFFFFFFFFF AND MUL OR SWAP1 SSTORE POP POP JUMP JUMPDEST PUSH1 0x0 DUP1 PUSH1 0x2 DUP4 DUP2 SLOAD DUP2 LT PUSH2 0x875 JUMPI PUSH2 0x874 PUSH2 0x2392 JUMP JUMPDEST JUMPDEST SWAP1 PUSH1 0x0 MSTORE PUSH1 0x20 PUSH1 0x0 KECCAK256 ADD SWAP1 POP DUP1 PUSH1 0x0 ADD PUSH1 0x0 SWAP1 SLOAD SWAP1 PUSH2 0x100 EXP SWAP1 DIV PUSH20 0xFFFFFFFFFFFFFFFFFFFFFFFFFFFFFFFFFFFFFFFF AND SWAP2 POP POP SWAP2 SWAP1 POP JUMP JUMPDEST PUSH1 0x1 DUP2 DUP2 SLOAD DUP2 LT PUSH2 0x8BE JUMPI PUSH1 0x0 DUP1 REVERT JUMPDEST SWAP1 PUSH1 0x0 MSTORE PUSH1 0x20 PUSH1 0x0 KECCAK256 ADD PUSH1 0x0 SWAP2 POP SLOAD SWAP1 PUSH2 0x100 EXP SWAP1 DIV PUSH20 0xFFFFFFFFFFFFFFFFFFFFFFFFFFFFFFFFFFFFFFFF AND DUP2 JUMP JUMPDEST PUSH1 0x0 PUSH1 0x60 PUSH1 0x3 DUP1 SLOAD SWAP1 POP DUP4 LT PUSH2 0x938 JUMPI PUSH1 0x40 MLOAD PUSH32 0x8C379A000000000000000000000000000000000000000000000000000000000 DUP2 MSTORE PUSH1 0x4 ADD PUSH2 0x92F SWAP1 PUSH2 0x2586 JUMP JUMPDEST PUSH1 0x40 MLOAD DUP1 SWAP2 SUB SWAP1 REVERT JUMPDEST PUSH1 0x0 PUSH1 0x3 DUP5 DUP2 SLOAD DUP2 LT PUSH2 0x94E JUMPI PUSH2 0x94D PUSH2 0x2392 JUMP JUMPDEST JUMPDEST SWAP1 PUSH1 0x0 MSTORE PUSH1 0x20 PUSH1 0x0 KECCAK256 SWAP1 PUSH1 0xD MUL ADD SWAP1 POP DUP1 PUSH1 0x0 ADD PUSH1 0x0 SWAP1 SLOAD SWAP1 PUSH2 0x100 EXP SWAP1 DIV PUSH20 0xFFFFFFFFFFFFFFFFFFFFFFFFFFFFFFFFFFFFFFFF AND DUP2 PUSH1 0x1 ADD DUP1 DUP1 SLOAD PUSH2 0x993 SWAP1 PUSH2 0x22CC JUMP JUMPDEST DUP1 PUSH1 0x1F ADD PUSH1 0x20 DUP1 SWAP2 DIV MUL PUSH1 0x20 ADD PUSH1 0x40 MLOAD SWAP1 DUP2 ADD PUSH1 0x40 MSTORE DUP1 SWAP3 SWAP2 SWAP1 DUP2 DUP2 MSTORE PUSH1 0x20 ADD DUP3 DUP1 SLOAD PUSH2 0x9BF SWAP1 PUSH2 0x22CC JUMP JUMPDEST DUP1 ISZERO PUSH2 0xA0C JUMPI DUP1 PUSH1 0x1F LT PUSH2 0x9E1 JUMPI PUSH2 0x100 DUP1 DUP4 SLOAD DIV MUL DUP4 MSTORE SWAP2 PUSH1 0x20 ADD SWAP2 PUSH2 0xA0C JUMP JUMPDEST DUP3 ADD SWAP2 SWAP1 PUSH1 0x0 MSTORE PUSH1 0x20 PUSH1 0x0 KECCAK256 SWAP1 JUMPDEST DUP2 SLOAD DUP2 MSTORE SWAP1 PUSH1 0x1 ADD SWAP1 PUSH1 0x20 ADD DUP1 DUP4 GT PUSH2 0x9EF JUMPI DUP3 SWAP1 SUB PUSH1 0x1F AND DUP3 ADD SWAP2 JUMPDEST POP POP POP POP POP SWAP1 POP SWAP3 POP SWAP3 POP POP SWAP2 POP SWAP2 JUMP JUMPDEST PUSH1 0x3 DUP3 DUP2 SLOAD DUP2 LT PUSH2 0xA31 JUMPI PUSH2 0xA30 PUSH2 0x2392 JUMP JUMPDEST JUMPDEST SWAP1 PUSH1 0x0 MSTORE PUSH1 0x20 PUSH1 0x0 KECCAK256 SWAP1 PUSH1 0xD MUL ADD PUSH1 0x8 ADD PUSH1 0x0 CALLER PUSH20 0xFFFFFFFFFFFFFFFFFFFFFFFFFFFFFFFFFFFFFFFF AND PUSH20 0xFFFFFFFFFFFFFFFFFFFFFFFFFFFFFFFFFFFFFFFF AND DUP2 MSTORE PUSH1 0x20 ADD SWAP1 DUP2 MSTORE PUSH1 0x20 ADD PUSH1 0x0 KECCAK256 PUSH1 0x0 SWAP1 SLOAD SWAP1 PUSH2 0x100 EXP SWAP1 DIV PUSH1 0xFF AND PUSH2 0xACC JUMPI PUSH1 0x40 MLOAD PUSH32 0x8C379A000000000000000000000000000000000000000000000000000000000 DUP2 MSTORE PUSH1 0x4 ADD PUSH2 0xAC3 SWAP1 PUSH2 0x2618 JUMP JUMPDEST PUSH1 0x40 MLOAD DUP1 SWAP2 SUB SWAP1 REVERT JUMPDEST PUSH1 0x3 DUP3 DUP2 SLOAD DUP2 LT PUSH2 0xAE0 JUMPI PUSH2 0xADF PUSH2 0x2392 JUMP JUMPDEST JUMPDEST SWAP1 PUSH1 0x0 MSTORE PUSH1 0x20 PUSH1 0x0 KECCAK256 SWAP1 PUSH1 0xD MUL ADD PUSH1 0x2 ADD DUP1 SLOAD SWAP1 POP DUP2 PUSH1 0xFF AND LT PUSH2 0xB39 JUMPI PUSH1 0x40 MLOAD PUSH32 0x8C379A000000000000000000000000000000000000000000000000000000000 DUP2 MSTORE PUSH1 0x4 ADD PUSH2 0xB30 SWAP1 PUSH2 0x2684 JUMP JUMPDEST PUSH1 0x40 MLOAD DUP1 SWAP2 SUB SWAP1 REVERT JUMPDEST PUSH1 0x0 PUSH1 0x3 DUP4 DUP2 SLOAD DUP2 LT PUSH2 0xB4F JUMPI PUSH2 0xB4E PUSH2 0x2392 JUMP JUMPDEST JUMPDEST SWAP1 PUSH1 0x0 MSTORE PUSH1 0x20 PUSH1 0x0 KECCAK256 SWAP1 PUSH1 0xD MUL ADD PUSH1 0x8 ADD PUSH1 0x0 CALLER PUSH20 0xFFFFFFFFFFFFFFFFFFFFFFFFFFFFFFFFFFFFFFFF AND PUSH20 0xFFFFFFFFFFFFFFFFFFFFFFFFFFFFFFFFFFFFFFFF AND DUP2 MSTORE PUSH1 0x20 ADD SWAP1 DUP2 MSTORE PUSH1 0x20 ADD PUSH1 0x0 KECCAK256 PUSH1 0x0 PUSH2 0x100 EXP DUP2 SLOAD DUP2 PUSH1 0xFF MUL NOT AND SWAP1 DUP4 ISZERO ISZERO MUL OR SWAP1 SSTORE POP PUSH2 0xBC0 DUP3 DUP3 PUSH1 0x1 PUSH2 0x1580 JUMP JUMPDEST POP POP JUMP JUMPDEST PUSH1 0x2 DUP1 SLOAD SWAP1 POP PUSH1 0x1 PUSH4 0xFFFFFFFF AND GT ISZERO PUSH2 0xC13 JUMPI PUSH1 0x40 MLOAD PUSH32 0x8C379A000000000000000000000000000000000000000000000000000000000 DUP2 MSTORE PUSH1 0x4 ADD PUSH2 0xC0A SWAP1 PUSH2 0x2716 JUMP JUMPDEST PUSH1 0x40 MLOAD DUP1 SWAP2 SUB SWAP1 REVERT JUMPDEST PUSH1 0x3 DUP1 SLOAD SWAP1 POP DUP2 LT PUSH2 0xC5A JUMPI PUSH1 0x40 MLOAD PUSH32 0x8C379A000000000000000000000000000000000000000000000000000000000 DUP2 MSTORE PUSH1 0x4 ADD PUSH2 0xC51 SWAP1 PUSH2 0x2372 JUMP JUMPDEST PUSH1 0x40 MLOAD DUP1 SWAP2 SUB SWAP1 REVERT JUMPDEST PUSH2 0xC63 DUP2 PUSH2 0x1637 JUMP JUMPDEST PUSH1 0x0 PUSH1 0x1 PUSH4 0xFFFFFFFF AND PUSH8 0xFFFFFFFFFFFFFFFF DUP2 GT ISZERO PUSH2 0xC86 JUMPI PUSH2 0xC85 PUSH2 0x1B79 JUMP JUMPDEST JUMPDEST PUSH1 0x40 MLOAD SWAP1 DUP1 DUP3 MSTORE DUP1 PUSH1 0x20 MUL PUSH1 0x20 ADD DUP3 ADD PUSH1 0x40 MSTORE DUP1 ISZERO PUSH2 0xCB4 JUMPI DUP2 PUSH1 0x20 ADD PUSH1 0x20 DUP3 MUL DUP1 CALLDATASIZE DUP4 CALLDATACOPY DUP1 DUP3 ADD SWAP2 POP POP SWAP1 POP JUMPDEST POP SWAP1 POP PUSH1 0x0 JUMPDEST PUSH1 0x1 PUSH4 0xFFFFFFFF AND DUP2 PUSH4 0xFFFFFFFF AND LT ISZERO PUSH2 0xE32 JUMPI PUSH1 0x3 DUP4 DUP2 SLOAD DUP2 LT PUSH2 0xCE3 JUMPI PUSH2 0xCE2 PUSH2 0x2392 JUMP JUMPDEST JUMPDEST SWAP1 PUSH1 0x0 MSTORE PUSH1 0x20 PUSH1 0x0 KECCAK256 SWAP1 PUSH1 0xD MUL ADD PUSH1 0xA ADD DUP2 PUSH4 0xFFFFFFFF AND DUP2 SLOAD DUP2 LT PUSH2 0xD0C JUMPI PUSH2 0xD0B PUSH2 0x2392 JUMP JUMPDEST JUMPDEST SWAP1 PUSH1 0x0 MSTORE PUSH1 0x20 PUSH1 0x0 KECCAK256 ADD PUSH1 0x0 SWAP1 SLOAD SWAP1 PUSH2 0x100 EXP SWAP1 DIV PUSH20 0xFFFFFFFFFFFFFFFFFFFFFFFFFFFFFFFFFFFFFFFF AND DUP3 DUP3 PUSH4 0xFFFFFFFF AND DUP2 MLOAD DUP2 LT PUSH2 0xD50 JUMPI PUSH2 0xD4F PUSH2 0x2392 JUMP JUMPDEST JUMPDEST PUSH1 0x20 MUL PUSH1 0x20 ADD ADD SWAP1 PUSH20 0xFFFFFFFFFFFFFFFFFFFFFFFFFFFFFFFFFFFFFFFF AND SWAP1 DUP2 PUSH20 0xFFFFFFFFFFFFFFFFFFFFFFFFFFFFFFFFFFFFFFFF AND DUP2 MSTORE POP POP PUSH1 0x1 PUSH1 0x3 DUP5 DUP2 SLOAD DUP2 LT PUSH2 0xDA0 JUMPI PUSH2 0xD9F PUSH2 0x2392 JUMP JUMPDEST JUMPDEST SWAP1 PUSH1 0x0 MSTORE PUSH1 0x20 PUSH1 0x0 KECCAK256 SWAP1 PUSH1 0xD MUL ADD PUSH1 0x8 ADD PUSH1 0x0 DUP5 DUP5 PUSH4 0xFFFFFFFF AND DUP2 MLOAD DUP2 LT PUSH2 0xDCC JUMPI PUSH2 0xDCB PUSH2 0x2392 JUMP JUMPDEST JUMPDEST PUSH1 0x20 MUL PUSH1 0x20 ADD ADD MLOAD PUSH20 0xFFFFFFFFFFFFFFFFFFFFFFFFFFFFFFFFFFFFFFFF AND PUSH20 0xFFFFFFFFFFFFFFFFFFFFFFFFFFFFFFFFFFFFFFFF AND DUP2 MSTORE PUSH1 0x20 ADD SWAP1 DUP2 MSTORE PUSH1 0x20 ADD PUSH1 0x0 KECCAK256 PUSH1 0x0 PUSH2 0x100 EXP DUP2 SLOAD DUP2 PUSH1 0xFF MUL NOT AND SWAP1 DUP4 ISZERO ISZERO MUL OR SWAP1 SSTORE POP DUP1 DUP1 PUSH1 0x1 ADD SWAP2 POP POP PUSH2 0xCBA JUMP JUMPDEST POP DUP1 PUSH1 0x3 DUP4 DUP2 SLOAD DUP2 LT PUSH2 0xE48 JUMPI PUSH2 0xE47 PUSH2 0x2392 JUMP JUMPDEST JUMPDEST SWAP1 PUSH1 0x0 MSTORE PUSH1 0x20 PUSH1 0x0 KECCAK256 SWAP1 PUSH1 0xD MUL ADD PUSH1 0x9 ADD SWAP1 DUP1 MLOAD SWAP1 PUSH1 0x20 ADD SWAP1 PUSH2 0xE6C SWAP3 SWAP2 SWAP1 PUSH2 0x1914 JUMP JUMPDEST POP POP POP JUMP JUMPDEST PUSH1 0x6 PUSH1 0x4 SWAP1 SLOAD SWAP1 PUSH2 0x100 EXP SWAP1 DIV PUSH20 0xFFFFFFFFFFFFFFFFFFFFFFFFFFFFFFFFFFFFFFFF AND PUSH20 0xFFFFFFFFFFFFFFFFFFFFFFFFFFFFFFFFFFFFFFFF AND CALLER PUSH20 0xFFFFFFFFFFFFFFFFFFFFFFFFFFFFFFFFFFFFFFFF AND EQ PUSH2 0xF01 JUMPI PUSH1 0x40 MLOAD PUSH32 0x8C379A000000000000000000000000000000000000000000000000000000000 DUP2 MSTORE PUSH1 0x4 ADD PUSH2 0xEF8 SWAP1 PUSH2 0x27A8 JUMP JUMPDEST PUSH1 0x40 MLOAD DUP1 SWAP2 SUB SWAP1 REVERT JUMPDEST PUSH1 0x2 PUSH1 0x40 MLOAD DUP1 PUSH1 0x20 ADD PUSH1 0x40 MSTORE DUP1 DUP4 PUSH20 0xFFFFFFFFFFFFFFFFFFFFFFFFFFFFFFFFFFFFFFFF AND DUP2 MSTORE POP SWAP1 DUP1 PUSH1 0x1 DUP2 SLOAD ADD DUP1 DUP3 SSTORE DUP1 SWAP2 POP POP PUSH1 0x1 SWAP1 SUB SWAP1 PUSH1 0x0 MSTORE PUSH1 0x20 PUSH1 0x0 KECCAK256 ADD PUSH1 0x0 SWAP1 SWAP2 SWAP1 SWAP2 SWAP1 SWAP2 POP PUSH1 0x0 DUP3 ADD MLOAD DUP2 PUSH1 0x0 ADD PUSH1 0x0 PUSH2 0x100 EXP DUP2 SLOAD DUP2 PUSH20 0xFFFFFFFFFFFFFFFFFFFFFFFFFFFFFFFFFFFFFFFF MUL NOT AND SWAP1 DUP4 PUSH20 0xFFFFFFFFFFFFFFFFFFFFFFFFFFFFFFFFFFFFFFFF AND MUL OR SWAP1 SSTORE POP POP POP POP JUMP JUMPDEST PUSH1 0x6 PUSH1 0x4 SWAP1 SLOAD SWAP1 PUSH2 0x100 EXP SWAP1 DIV PUSH20 0xFFFFFFFFFFFFFFFFFFFFFFFFFFFFFFFFFFFFFFFF AND DUP2 JUMP JUMPDEST PUSH1 0x6 PUSH1 0x4 SWAP1 SLOAD SWAP1 PUSH2 0x100 EXP SWAP1 DIV PUSH20 0xFFFFFFFFFFFFFFFFFFFFFFFFFFFFFFFFFFFFFFFF AND PUSH20 0xFFFFFFFFFFFFFFFFFFFFFFFFFFFFFFFFFFFFFFFF AND CALLER PUSH20 0xFFFFFFFFFFFFFFFFFFFFFFFFFFFFFFFFFFFFFFFF AND EQ PUSH2 0x104F JUMPI PUSH1 0x40 MLOAD PUSH32 0x8C379A000000000000000000000000000000000000000000000000000000000 DUP2 MSTORE PUSH1 0x4 ADD PUSH2 0x1046 SWAP1 PUSH2 0x283A JUMP JUMPDEST PUSH1 0x40 MLOAD DUP1 SWAP2 SUB SWAP1 REVERT JUMPDEST DUP1 PUSH1 0x3 DUP4 DUP2 SLOAD DUP2 LT PUSH2 0x1064 JUMPI PUSH2 0x1063 PUSH2 0x2392 JUMP JUMPDEST JUMPDEST SWAP1 PUSH1 0x0 MSTORE PUSH1 0x20 PUSH1 0x0 KECCAK256 SWAP1 PUSH1 0xD MUL ADD PUSH1 0x3 ADD DUP2 SWAP1 SSTORE POP POP POP JUMP JUMPDEST PUSH1 0x2 DUP2 DUP2 SLOAD DUP2 LT PUSH2 0x108D JUMPI PUSH1 0x0 DUP1 REVERT JUMPDEST SWAP1 PUSH1 0x0 MSTORE PUSH1 0x20 PUSH1 0x0 KECCAK256 ADD PUSH1 0x0 SWAP2 POP SWAP1 POP DUP1 PUSH1 0x0 ADD PUSH1 0x0 SWAP1 SLOAD SWAP1 PUSH2 0x100 EXP SWAP1 DIV PUSH20 0xFFFFFFFFFFFFFFFFFFFFFFFFFFFFFFFFFFFFFFFF AND SWAP1 POP DUP2 JUMP JUMPDEST PUSH1 0x0 DUP1 PUSH1 0x3 PUSH1 0x1 DUP2 PUSH1 0x1 DUP2 SLOAD ADD DUP1 DUP3 SSTORE DUP1 SWAP2 POP POP SUB SWAP1 PUSH1 0x0 MSTORE PUSH1 0x20 PUSH1 0x0 KECCAK256 SWAP1 PUSH1 0xD MUL ADD SWAP1 POP CALLER DUP2 PUSH1 0x0 ADD PUSH1 0x0 PUSH2 0x100 EXP DUP2 SLOAD DUP2 PUSH20 0xFFFFFFFFFFFFFFFFFFFFFFFFFFFFFFFFFFFFFFFF MUL NOT AND SWAP1 DUP4 PUSH20 0xFFFFFFFFFFFFFFFFFFFFFFFFFFFFFFFFFFFFFFFF AND MUL OR SWAP1 SSTORE POP DUP3 DUP2 PUSH1 0x1 ADD SWAP1 DUP2 PUSH2 0x1140 SWAP2 SWAP1 PUSH2 0x2A06 JUMP JUMPDEST POP PUSH1 0x0 PUSH1 0x1 PUSH1 0x3 DUP1 SLOAD SWAP1 POP PUSH2 0x1155 SWAP2 SWAP1 PUSH2 0x2B07 JUMP JUMPDEST SWAP1 POP PUSH32 0xA60548F72B4D903F0447B295C585405A252B851618CB87AADE049CF2A7CF988C DUP2 PUSH1 0x40 MLOAD PUSH2 0x1186 SWAP2 SWAP1 PUSH2 0x20D0 JUMP JUMPDEST PUSH1 0x40 MLOAD DUP1 SWAP2 SUB SWAP1 LOG1 DUP1 SWAP3 POP POP POP SWAP2 SWAP1 POP JUMP JUMPDEST PUSH1 0x3 DUP2 DUP2 SLOAD DUP2 LT PUSH2 0x11A8 JUMPI PUSH1 0x0 DUP1 REVERT JUMPDEST SWAP1 PUSH1 0x0 MSTORE PUSH1 0x20 PUSH1 0x0 KECCAK256 SWAP1 PUSH1 0xD MUL ADD PUSH1 0x0 SWAP2 POP SWAP1 POP DUP1 PUSH1 0x0 ADD PUSH1 0x0 SWAP1 SLOAD SWAP1 PUSH2 0x100 EXP SWAP1 DIV PUSH20 0xFFFFFFFFFFFFFFFFFFFFFFFFFFFFFFFFFFFFFFFF AND SWAP1 DUP1 PUSH1 0x1 ADD DUP1 SLOAD PUSH2 0x11F1 SWAP1 PUSH2 0x22CC JUMP JUMPDEST DUP1 PUSH1 0x1F ADD PUSH1 0x20 DUP1 SWAP2 DIV MUL PUSH1 0x20 ADD PUSH1 0x40 MLOAD SWAP1 DUP2 ADD PUSH1 0x40 MSTORE DUP1 SWAP3 SWAP2 SWAP1 DUP2 DUP2 MSTORE PUSH1 0x20 ADD DUP3 DUP1 SLOAD PUSH2 0x121D SWAP1 PUSH2 0x22CC JUMP JUMPDEST DUP1 ISZERO PUSH2 0x126A JUMPI DUP1 PUSH1 0x1F LT PUSH2 0x123F JUMPI PUSH2 0x100 DUP1 DUP4 SLOAD DIV MUL DUP4 MSTORE SWAP2 PUSH1 0x20 ADD SWAP2 PUSH2 0x126A JUMP JUMPDEST DUP3 ADD SWAP2 SWAP1 PUSH1 0x0 MSTORE PUSH1 0x20 PUSH1 0x0 KECCAK256 SWAP1 JUMPDEST DUP2 SLOAD DUP2 MSTORE SWAP1 PUSH1 0x1 ADD SWAP1 PUSH1 0x20 ADD DUP1 DUP4 GT PUSH2 0x124D JUMPI DUP3 SWAP1 SUB PUSH1 0x1F AND DUP3 ADD SWAP2 JUMPDEST POP POP POP POP POP SWAP1 DUP1 PUSH1 0x3 ADD SLOAD SWAP1 DUP1 PUSH1 0xB ADD PUSH1 0x0 SWAP1 SLOAD SWAP1 PUSH2 0x100 EXP SWAP1 DIV PUSH1 0xFF AND SWAP1 DUP1 PUSH1 0xC ADD SLOAD SWAP1 POP DUP6 JUMP JUMPDEST PUSH1 0x5 SLOAD DUP2 JUMP JUMPDEST PUSH1 0x0 DUP1 JUMPDEST PUSH1 0x3 DUP4 DUP2 SLOAD DUP2 LT PUSH2 0x12B1 JUMPI PUSH2 0x12B0 PUSH2 0x2392 JUMP JUMPDEST JUMPDEST SWAP1 PUSH1 0x0 MSTORE PUSH1 0x20 PUSH1 0x0 KECCAK256 SWAP1 PUSH1 0xD MUL ADD PUSH1 0x2 ADD DUP1 SLOAD SWAP1 POP DUP2 PUSH1 0xFF AND LT ISZERO PUSH2 0x1349 JUMPI PUSH1 0x0 PUSH1 0x3 DUP5 DUP2 SLOAD DUP2 LT PUSH2 0x12E6 JUMPI PUSH2 0x12E5 PUSH2 0x2392 JUMP JUMPDEST JUMPDEST SWAP1 PUSH1 0x0 MSTORE PUSH1 0x20 PUSH1 0x0 KECCAK256 SWAP1 PUSH1 0xD MUL ADD PUSH1 0x6 ADD PUSH1 0x0 DUP4 PUSH1 0xFF AND PUSH1 0xFF AND DUP2 MSTORE PUSH1 0x20 ADD SWAP1 DUP2 MSTORE PUSH1 0x20 ADD PUSH1 0x0 KECCAK256 PUSH1 0x0 SWAP1 SLOAD SWAP1 PUSH2 0x100 EXP SWAP1 DIV PUSH4 0xFFFFFFFF AND PUSH4 0xFFFFFFFF AND SWAP1 POP DUP1 DUP4 PUSH2 0x1333 SWAP2 SWAP1 PUSH2 0x2B3B JUMP JUMPDEST SWAP3 POP POP DUP1 DUP1 PUSH2 0x1341 SWAP1 PUSH2 0x2B6F JUMP JUMPDEST SWAP2 POP POP PUSH2 0x129D JUMP JUMPDEST POP DUP1 PUSH1 0x3 DUP4 DUP2 SLOAD DUP2 LT PUSH2 0x135F JUMPI PUSH2 0x135E PUSH2 0x2392 JUMP JUMPDEST JUMPDEST SWAP1 PUSH1 0x0 MSTORE PUSH1 0x20 PUSH1 0x0 KECCAK256 SWAP1 PUSH1 0xD MUL ADD PUSH1 0x3 ADD SLOAD PUSH1 0x3 DUP5 DUP2 SLOAD DUP2 LT PUSH2 0x1385 JUMPI PUSH2 0x1384 PUSH2 0x2392 JUMP JUMPDEST JUMPDEST SWAP1 PUSH1 0x0 MSTORE PUSH1 0x20 PUSH1 0x0 KECCAK256 SWAP1 PUSH1 0xD MUL ADD PUSH1 0x9 ADD DUP1 SLOAD SWAP1 POP PUSH2 0x13A4 SWAP2 SWAP1 PUSH2 0x2B98 JUMP JUMPDEST GT ISZERO PUSH1 0x3 DUP4 DUP2 SLOAD DUP2 LT PUSH2 0x13BA JUMPI PUSH2 0x13B9 PUSH2 0x2392 JUMP JUMPDEST JUMPDEST SWAP1 PUSH1 0x0 MSTORE PUSH1 0x20 PUSH1 0x0 KECCAK256 SWAP1 PUSH1 0xD MUL ADD PUSH1 0xB ADD PUSH1 0x0 PUSH2 0x100 EXP DUP2 SLOAD DUP2 PUSH1 0xFF MUL NOT AND SWAP1 DUP4 ISZERO ISZERO MUL OR SWAP1 SSTORE POP PUSH32 0xCF2E094A417FB9DDC4AAB53EFE164D3B66351971E47B3A24CAF73AE37E91384D DUP3 PUSH1 0x3 DUP5 DUP2 SLOAD DUP2 LT PUSH2 0x1418 JUMPI PUSH2 0x1417 PUSH2 0x2392 JUMP JUMPDEST JUMPDEST SWAP1 PUSH1 0x0 MSTORE PUSH1 0x20 PUSH1 0x0 KECCAK256 SWAP1 PUSH1 0xD MUL ADD PUSH1 0xB ADD PUSH1 0x0 SWAP1 SLOAD SWAP1 PUSH2 0x100 EXP SWAP1 DIV PUSH1 0xFF AND PUSH1 0x40 MLOAD PUSH2 0x1445 SWAP3 SWAP2 SWAP1 PUSH2 0x2BDA JUMP JUMPDEST PUSH1 0x40 MLOAD DUP1 SWAP2 SUB SWAP1 LOG1 POP POP JUMP JUMPDEST PUSH1 0x6 PUSH1 0x4 SWAP1 SLOAD SWAP1 PUSH2 0x100 EXP SWAP1 DIV PUSH20 0xFFFFFFFFFFFFFFFFFFFFFFFFFFFFFFFFFFFFFFFF AND PUSH20 0xFFFFFFFFFFFFFFFFFFFFFFFFFFFFFFFFFFFFFFFF AND CALLER PUSH20 0xFFFFFFFFFFFFFFFFFFFFFFFFFFFFFFFFFFFFFFFF AND EQ PUSH2 0x14E1 JUMPI PUSH1 0x40 MLOAD PUSH32 0x8C379A000000000000000000000000000000000000000000000000000000000 DUP2 MSTORE PUSH1 0x4 ADD PUSH2 0x14D8 SWAP1 PUSH2 0x2C4F JUMP JUMPDEST PUSH1 0x40 MLOAD DUP1 SWAP2 SUB SWAP1 REVERT JUMPDEST DUP1 PUSH1 0x3 DUP4 DUP2 SLOAD DUP2 LT PUSH2 0x14F6 JUMPI PUSH2 0x14F5 PUSH2 0x2392 JUMP JUMPDEST JUMPDEST SWAP1 PUSH1 0x0 MSTORE PUSH1 0x20 PUSH1 0x0 KECCAK256 SWAP1 PUSH1 0xD MUL ADD PUSH1 0x2 ADD SWAP1 DUP1 MLOAD SWAP1 PUSH1 0x20 ADD SWAP1 PUSH2 0x151A SWAP3 SWAP2 SWAP1 PUSH2 0x199E JUMP JUMPDEST POP POP POP JUMP JUMPDEST PUSH1 0x0 DUP1 PUSH1 0x0 DUP5 DUP2 MSTORE PUSH1 0x20 ADD SWAP1 DUP2 MSTORE PUSH1 0x20 ADD PUSH1 0x0 KECCAK256 SLOAD SWAP1 POP DUP2 PUSH1 0x0 DUP2 MLOAD DUP2 LT PUSH2 0x154A JUMPI PUSH2 0x1549 PUSH2 0x2392 JUMP JUMPDEST JUMPDEST PUSH1 0x20 MUL PUSH1 0x20 ADD ADD MLOAD PUSH1 0x3 DUP3 DUP2 SLOAD DUP2 LT PUSH2 0x1566 JUMPI PUSH2 0x1565 PUSH2 0x2392 JUMP JUMPDEST JUMPDEST SWAP1 PUSH1 0x0 MSTORE PUSH1 0x20 PUSH1 0x0 KECCAK256 SWAP1 PUSH1 0xD MUL ADD PUSH1 0xC ADD DUP2 SWAP1 SSTORE POP POP POP POP JUMP JUMPDEST DUP1 PUSH1 0x3 DUP5 DUP2 SLOAD DUP2 LT PUSH2 0x1595 JUMPI PUSH2 0x1594 PUSH2 0x2392 JUMP JUMPDEST JUMPDEST SWAP1 PUSH1 0x0 MSTORE PUSH1 0x20 PUSH1 0x0 KECCAK256 SWAP1 PUSH1 0xD MUL ADD PUSH1 0x6 ADD PUSH1 0x0 DUP5 PUSH1 0xFF AND PUSH1 0xFF AND DUP2 MSTORE PUSH1 0x20 ADD SWAP1 DUP2 MSTORE PUSH1 0x20 ADD PUSH1 0x0 KECCAK256 PUSH1 0x0 SWAP1 SLOAD SWAP1 PUSH2 0x100 EXP SWAP1 DIV PUSH4 0xFFFFFFFF AND PUSH2 0x15D8 SWAP2 SWAP1 PUSH2 0x2C6F JUMP JUMPDEST PUSH1 0x3 DUP5 DUP2 SLOAD DUP2 LT PUSH2 0x15EC JUMPI PUSH2 0x15EB PUSH2 0x2392 JUMP JUMPDEST JUMPDEST SWAP1 PUSH1 0x0 MSTORE PUSH1 0x20 PUSH1 0x0 KECCAK256 SWAP1 PUSH1 0xD MUL ADD PUSH1 0x6 ADD PUSH1 0x0 DUP5 PUSH1 0xFF AND PUSH1 0xFF AND DUP2 MSTORE PUSH1 0x20 ADD SWAP1 DUP2 MSTORE PUSH1 0x20 ADD PUSH1 0x0 KECCAK256 PUSH1 0x0 PUSH2 0x100 EXP DUP2 SLOAD DUP2 PUSH4 0xFFFFFFFF MUL NOT AND SWAP1 DUP4 PUSH4 0xFFFFFFFF AND MUL OR SWAP1 SSTORE POP POP POP POP JUMP JUMPDEST PUSH1 0x3 DUP1 SLOAD SWAP1 POP DUP2 LT PUSH2 0x167E JUMPI PUSH1 0x40 MLOAD PUSH32 0x8C379A000000000000000000000000000000000000000000000000000000000 DUP2 MSTORE PUSH1 0x4 ADD PUSH2 0x1675 SWAP1 PUSH2 0x2372 JUMP JUMPDEST PUSH1 0x40 MLOAD DUP1 SWAP2 SUB SWAP1 REVERT JUMPDEST PUSH1 0x0 PUSH1 0x2 DUP1 SLOAD SWAP1 POP PUSH8 0xFFFFFFFFFFFFFFFF DUP2 GT ISZERO PUSH2 0x169F JUMPI PUSH2 0x169E PUSH2 0x1B79 JUMP JUMPDEST JUMPDEST PUSH1 0x40 MLOAD SWAP1 DUP1 DUP3 MSTORE DUP1 PUSH1 0x20 MUL PUSH1 0x20 ADD DUP3 ADD PUSH1 0x40 MSTORE DUP1 ISZERO PUSH2 0x16CD JUMPI DUP2 PUSH1 0x20 ADD PUSH1 0x20 DUP3 MUL DUP1 CALLDATASIZE DUP4 CALLDATACOPY DUP1 DUP3 ADD SWAP2 POP POP SWAP1 POP JUMPDEST POP SWAP1 POP PUSH1 0x0 JUMPDEST PUSH1 0x2 DUP1 SLOAD SWAP1 POP DUP2 LT ISZERO PUSH2 0x177C JUMPI PUSH1 0x2 DUP2 DUP2 SLOAD DUP2 LT PUSH2 0x16F4 JUMPI PUSH2 0x16F3 PUSH2 0x2392 JUMP JUMPDEST JUMPDEST SWAP1 PUSH1 0x0 MSTORE PUSH1 0x20 PUSH1 0x0 KECCAK256 ADD PUSH1 0x0 ADD PUSH1 0x0 SWAP1 SLOAD SWAP1 PUSH2 0x100 EXP SWAP1 DIV PUSH20 0xFFFFFFFFFFFFFFFFFFFFFFFFFFFFFFFFFFFFFFFF AND DUP3 DUP3 DUP2 MLOAD DUP2 LT PUSH2 0x1735 JUMPI PUSH2 0x1734 PUSH2 0x2392 JUMP JUMPDEST JUMPDEST PUSH1 0x20 MUL PUSH1 0x20 ADD ADD SWAP1 PUSH20 0xFFFFFFFFFFFFFFFFFFFFFFFFFFFFFFFFFFFFFFFF AND SWAP1 DUP2 PUSH20 0xFFFFFFFFFFFFFFFFFFFFFFFFFFFFFFFFFFFFFFFF AND DUP2 MSTORE POP POP DUP1 DUP1 PUSH1 0x1 ADD SWAP2 POP POP PUSH2 0x16D3 JUMP JUMPDEST POP PUSH1 0x0 PUSH1 0x3 DUP4 DUP2 SLOAD DUP2 LT PUSH2 0x1793 JUMPI PUSH2 0x1792 PUSH2 0x2392 JUMP JUMPDEST JUMPDEST SWAP1 PUSH1 0x0 MSTORE PUSH1 0x20 PUSH1 0x0 KECCAK256 SWAP1 PUSH1 0xD MUL ADD PUSH1 0xC ADD SLOAD SWAP1 POP PUSH1 0x0 JUMPDEST DUP3 MLOAD DUP2 LT ISZERO PUSH2 0x18D4 JUMPI PUSH1 0x0 PUSH1 0x1 DUP3 PUSH2 0x17C2 SWAP2 SWAP1 PUSH2 0x2B3B JUMP JUMPDEST DUP4 DUP4 PUSH1 0x40 MLOAD PUSH1 0x20 ADD PUSH2 0x17D5 SWAP3 SWAP2 SWAP1 PUSH2 0x2CA7 JUMP JUMPDEST PUSH1 0x40 MLOAD PUSH1 0x20 DUP2 DUP4 SUB SUB DUP2 MSTORE SWAP1 PUSH1 0x40 MSTORE DUP1 MLOAD SWAP1 PUSH1 0x20 ADD KECCAK256 PUSH1 0x0 SHR PUSH2 0x17F8 SWAP2 SWAP1 PUSH2 0x2CFF JUMP JUMPDEST SWAP1 POP DUP4 DUP2 DUP2 MLOAD DUP2 LT PUSH2 0x180D JUMPI PUSH2 0x180C PUSH2 0x2392 JUMP JUMPDEST JUMPDEST PUSH1 0x20 MUL PUSH1 0x20 ADD ADD MLOAD DUP5 DUP4 DUP2 MLOAD DUP2 LT PUSH2 0x1828 JUMPI PUSH2 0x1827 PUSH2 0x2392 JUMP JUMPDEST JUMPDEST PUSH1 0x20 MUL PUSH1 0x20 ADD ADD MLOAD DUP6 DUP5 DUP2 MLOAD DUP2 LT PUSH2 0x1843 JUMPI PUSH2 0x1842 PUSH2 0x2392 JUMP JUMPDEST JUMPDEST PUSH1 0x20 MUL PUSH1 0x20 ADD ADD DUP7 DUP5 DUP2 MLOAD DUP2 LT PUSH2 0x185D JUMPI PUSH2 0x185C PUSH2 0x2392 JUMP JUMPDEST JUMPDEST PUSH1 0x20 MUL PUSH1 0x20 ADD ADD DUP3 PUSH20 0xFFFFFFFFFFFFFFFFFFFFFFFFFFFFFFFFFFFFFFFF AND PUSH20 0xFFFFFFFFFFFFFFFFFFFFFFFFFFFFFFFFFFFFFFFF AND DUP2 MSTORE POP DUP3 PUSH20 0xFFFFFFFFFFFFFFFFFFFFFFFFFFFFFFFFFFFFFFFF AND PUSH20 0xFFFFFFFFFFFFFFFFFFFFFFFFFFFFFFFFFFFFFFFF AND DUP2 MSTORE POP POP POP POP DUP1 DUP1 PUSH1 0x1 ADD SWAP2 POP POP PUSH2 0x17AA JUMP JUMPDEST POP DUP2 PUSH1 0x3 DUP5 DUP2 SLOAD DUP2 LT PUSH2 0x18EA JUMPI PUSH2 0x18E9 PUSH2 0x2392 JUMP JUMPDEST JUMPDEST SWAP1 PUSH1 0x0 MSTORE PUSH1 0x20 PUSH1 0x0 KECCAK256 SWAP1 PUSH1 0xD MUL ADD PUSH1 0xA ADD SWAP1 DUP1 MLOAD SWAP1 PUSH1 0x20 ADD SWAP1 PUSH2 0x190E SWAP3 SWAP2 SWAP1 PUSH2 0x1914 JUMP JUMPDEST POP POP POP POP JUMP JUMPDEST DUP3 DUP1 SLOAD DUP3 DUP3 SSTORE SWAP1 PUSH1 0x0 MSTORE PUSH1 0x20 PUSH1 0x0 KECCAK256 SWAP1 DUP2 ADD SWAP3 DUP3 ISZERO PUSH2 0x198D JUMPI SWAP2 PUSH1 0x20 MUL DUP3 ADD JUMPDEST DUP3 DUP2 GT ISZERO PUSH2 0x198C JUMPI DUP3 MLOAD DUP3 PUSH1 0x0 PUSH2 0x100 EXP DUP2 SLOAD DUP2 PUSH20 0xFFFFFFFFFFFFFFFFFFFFFFFFFFFFFFFFFFFFFFFF MUL NOT AND SWAP1 DUP4 PUSH20 0xFFFFFFFFFFFFFFFFFFFFFFFFFFFFFFFFFFFFFFFF AND MUL OR SWAP1 SSTORE POP SWAP2 PUSH1 0x20 ADD SWAP2 SWAP1 PUSH1 0x1 ADD SWAP1 PUSH2 0x1934 JUMP JUMPDEST JUMPDEST POP SWAP1 POP PUSH2 0x199A SWAP2 SWAP1 PUSH2 0x19F7 JUMP JUMPDEST POP SWAP1 JUMP JUMPDEST DUP3 DUP1 SLOAD DUP3 DUP3 SSTORE SWAP1 PUSH1 0x0 MSTORE PUSH1 0x20 PUSH1 0x0 KECCAK256 SWAP1 DUP2 ADD SWAP3 DUP3 ISZERO PUSH2 0x19E6 JUMPI SWAP2 PUSH1 0x20 MUL DUP3 ADD JUMPDEST DUP3 DUP2 GT ISZERO PUSH2 0x19E5 JUMPI DUP3 MLOAD DUP3 SWAP1 DUP2 PUSH2 0x19D5 SWAP2 SWAP1 PUSH2 0x2A06 JUMP JUMPDEST POP SWAP2 PUSH1 0x20 ADD SWAP2 SWAP1 PUSH1 0x1 ADD SWAP1 PUSH2 0x19BE JUMP JUMPDEST JUMPDEST POP SWAP1 POP PUSH2 0x19F3 SWAP2 SWAP1 PUSH2 0x1A14 JUMP JUMPDEST POP SWAP1 JUMP JUMPDEST JUMPDEST DUP1 DUP3 GT ISZERO PUSH2 0x1A10 JUMPI PUSH1 0x0 DUP2 PUSH1 0x0 SWAP1 SSTORE POP PUSH1 0x1 ADD PUSH2 0x19F8 JUMP JUMPDEST POP SWAP1 JUMP JUMPDEST JUMPDEST DUP1 DUP3 GT ISZERO PUSH2 0x1A34 JUMPI PUSH1 0x0 DUP2 DUP2 PUSH2 0x1A2B SWAP2 SWAP1 PUSH2 0x1A38 JUMP JUMPDEST POP PUSH1 0x1 ADD PUSH2 0x1A15 JUMP JUMPDEST POP SWAP1 JUMP JUMPDEST POP DUP1 SLOAD PUSH2 0x1A44 SWAP1 PUSH2 0x22CC JUMP JUMPDEST PUSH1 0x0 DUP3 SSTORE DUP1 PUSH1 0x1F LT PUSH2 0x1A56 JUMPI POP PUSH2 0x1A75 JUMP JUMPDEST PUSH1 0x1F ADD PUSH1 0x20 SWAP1 DIV SWAP1 PUSH1 0x0 MSTORE PUSH1 0x20 PUSH1 0x0 KECCAK256 SWAP1 DUP2 ADD SWAP1 PUSH2 0x1A74 SWAP2 SWAP1 PUSH2 0x19F7 JUMP JUMPDEST JUMPDEST POP JUMP JUMPDEST PUSH1 0x0 DUP2 MLOAD SWAP1 POP SWAP2 SWAP1 POP JUMP JUMPDEST PUSH1 0x0 DUP3 DUP3 MSTORE PUSH1 0x20 DUP3 ADD SWAP1 POP SWAP3 SWAP2 POP POP JUMP JUMPDEST PUSH1 0x0 JUMPDEST DUP4 DUP2 LT ISZERO PUSH2 0x1AB2 JUMPI DUP1 DUP3 ADD MLOAD DUP2 DUP5 ADD MSTORE PUSH1 0x20 DUP2 ADD SWAP1 POP PUSH2 0x1A97 JUMP JUMPDEST PUSH1 0x0 DUP5 DUP5 ADD MSTORE POP POP POP POP JUMP JUMPDEST PUSH1 0x0 PUSH1 0x1F NOT PUSH1 0x1F DUP4 ADD AND SWAP1 POP SWAP2 SWAP1 POP JUMP JUMPDEST PUSH1 0x0 PUSH2 0x1ADA DUP3 PUSH2 0x1A78 JUMP JUMPDEST PUSH2 0x1AE4 DUP2 DUP6 PUSH2 0x1A83 JUMP JUMPDEST SWAP4 POP PUSH2 0x1AF4 DUP2 DUP6 PUSH1 0x20 DUP7 ADD PUSH2 0x1A94 JUMP JUMPDEST PUSH2 0x1AFD DUP2 PUSH2 0x1ABE JUMP JUMPDEST DUP5 ADD SWAP2 POP POP SWAP3 SWAP2 POP POP JUMP JUMPDEST PUSH1 0x0 PUSH1 0x20 DUP3 ADD SWAP1 POP DUP2 DUP2 SUB PUSH1 0x0 DUP4 ADD MSTORE PUSH2 0x1B22 DUP2 DUP5 PUSH2 0x1ACF JUMP JUMPDEST SWAP1 POP SWAP3 SWAP2 POP POP JUMP JUMPDEST PUSH1 0x0 PUSH1 0x40 MLOAD SWAP1 POP SWAP1 JUMP JUMPDEST PUSH1 0x0 DUP1 REVERT JUMPDEST PUSH1 0x0 DUP1 REVERT JUMPDEST PUSH1 0x0 DUP2 SWAP1 POP SWAP2 SWAP1 POP JUMP JUMPDEST PUSH2 0x1B51 DUP2 PUSH2 0x1B3E JUMP JUMPDEST DUP2 EQ PUSH2 0x1B5C JUMPI PUSH1 0x0 DUP1 REVERT JUMPDEST POP JUMP JUMPDEST PUSH1 0x0 DUP2 CALLDATALOAD SWAP1 POP PUSH2 0x1B6E DUP2 PUSH2 0x1B48 JUMP JUMPDEST SWAP3 SWAP2 POP POP JUMP JUMPDEST PUSH1 0x0 DUP1 REVERT JUMPDEST PUSH32 0x4E487B7100000000000000000000000000000000000000000000000000000000 PUSH1 0x0 MSTORE PUSH1 0x41 PUSH1 0x4 MSTORE PUSH1 0x24 PUSH1 0x0 REVERT JUMPDEST PUSH2 0x1BB1 DUP3 PUSH2 0x1ABE JUMP JUMPDEST DUP2 ADD DUP2 DUP2 LT PUSH8 0xFFFFFFFFFFFFFFFF DUP3 GT OR ISZERO PUSH2 0x1BD0 JUMPI PUSH2 0x1BCF PUSH2 0x1B79 JUMP JUMPDEST JUMPDEST DUP1 PUSH1 0x40 MSTORE POP POP POP JUMP JUMPDEST PUSH1 0x0 PUSH2 0x1BE3 PUSH2 0x1B2A JUMP JUMPDEST SWAP1 POP PUSH2 0x1BEF DUP3 DUP3 PUSH2 0x1BA8 JUMP JUMPDEST SWAP2 SWAP1 POP JUMP JUMPDEST PUSH1 0x0 PUSH8 0xFFFFFFFFFFFFFFFF DUP3 GT ISZERO PUSH2 0x1C0F JUMPI PUSH2 0x1C0E PUSH2 0x1B79 JUMP JUMPDEST JUMPDEST PUSH1 0x20 DUP3 MUL SWAP1 POP PUSH1 0x20 DUP2 ADD SWAP1 POP SWAP2 SWAP1 POP JUMP JUMPDEST PUSH1 0x0 DUP1 REVERT JUMPDEST PUSH1 0x0 PUSH2 0x1C38 PUSH2 0x1C33 DUP5 PUSH2 0x1BF4 JUMP JUMPDEST PUSH2 0x1BD9 JUMP JUMPDEST SWAP1 POP DUP1 DUP4 DUP3 MSTORE PUSH1 0x20 DUP3 ADD SWAP1 POP PUSH1 0x20 DUP5 MUL DUP4 ADD DUP6 DUP2 GT ISZERO PUSH2 0x1C5B JUMPI PUSH2 0x1C5A PUSH2 0x1C20 JUMP JUMPDEST JUMPDEST DUP4 JUMPDEST DUP2 DUP2 LT ISZERO PUSH2 0x1C84 JUMPI DUP1 PUSH2 0x1C70 DUP9 DUP3 PUSH2 0x1B5F JUMP JUMPDEST DUP5 MSTORE PUSH1 0x20 DUP5 ADD SWAP4 POP POP PUSH1 0x20 DUP2 ADD SWAP1 POP PUSH2 0x1C5D JUMP JUMPDEST POP POP POP SWAP4 SWAP3 POP POP POP JUMP JUMPDEST PUSH1 0x0 DUP3 PUSH1 0x1F DUP4 ADD SLT PUSH2 0x1CA3 JUMPI PUSH2 0x1CA2 PUSH2 0x1B74 JUMP JUMPDEST JUMPDEST DUP2 CALLDATALOAD PUSH2 0x1CB3 DUP5 DUP3 PUSH1 0x20 DUP7 ADD PUSH2 0x1C25 JUMP JUMPDEST SWAP2 POP POP SWAP3 SWAP2 POP POP JUMP JUMPDEST PUSH1 0x0 DUP1 PUSH1 0x40 DUP4 DUP6 SUB SLT ISZERO PUSH2 0x1CD3 JUMPI PUSH2 0x1CD2 PUSH2 0x1B34 JUMP JUMPDEST JUMPDEST PUSH1 0x0 PUSH2 0x1CE1 DUP6 DUP3 DUP7 ADD PUSH2 0x1B5F JUMP JUMPDEST SWAP3 POP POP PUSH1 0x20 DUP4 ADD CALLDATALOAD PUSH8 0xFFFFFFFFFFFFFFFF DUP2 GT ISZERO PUSH2 0x1D02 JUMPI PUSH2 0x1D01 PUSH2 0x1B39 JUMP JUMPDEST JUMPDEST PUSH2 0x1D0E DUP6 DUP3 DUP7 ADD PUSH2 0x1C8E JUMP JUMPDEST SWAP2 POP POP SWAP3 POP SWAP3 SWAP1 POP JUMP JUMPDEST PUSH1 0x0 PUSH1 0x20 DUP3 DUP5 SUB SLT ISZERO PUSH2 0x1D2E JUMPI PUSH2 0x1D2D PUSH2 0x1B34 JUMP JUMPDEST JUMPDEST PUSH1 0x0 PUSH2 0x1D3C DUP5 DUP3 DUP6 ADD PUSH2 0x1B5F JUMP JUMPDEST SWAP2 POP POP SWAP3 SWAP2 POP POP JUMP JUMPDEST PUSH1 0x0 DUP2 MLOAD SWAP1 POP SWAP2 SWAP1 POP JUMP JUMPDEST PUSH1 0x0 DUP3 DUP3 MSTORE PUSH1 0x20 DUP3 ADD SWAP1 POP SWAP3 SWAP2 POP POP JUMP JUMPDEST PUSH1 0x0 DUP2 SWAP1 POP PUSH1 0x20 DUP3 ADD SWAP1 POP SWAP2 SWAP1 POP JUMP JUMPDEST PUSH1 0x0 PUSH20 0xFFFFFFFFFFFFFFFFFFFFFFFFFFFFFFFFFFFFFFFF DUP3 AND SWAP1 POP SWAP2 SWAP1 POP JUMP JUMPDEST PUSH1 0x0 PUSH2 0x1D9C DUP3 PUSH2 0x1D71 JUMP JUMPDEST SWAP1 POP SWAP2 SWAP1 POP JUMP JUMPDEST PUSH2 0x1DAC DUP2 PUSH2 0x1D91 JUMP JUMPDEST DUP3 MSTORE POP POP JUMP JUMPDEST PUSH1 0x0 PUSH2 0x1DBE DUP4 DUP4 PUSH2 0x1DA3 JUMP JUMPDEST PUSH1 0x20 DUP4 ADD SWAP1 POP SWAP3 SWAP2 POP POP JUMP JUMPDEST PUSH1 0x0 PUSH1 0x20 DUP3 ADD SWAP1 POP SWAP2 SWAP1 POP JUMP JUMPDEST PUSH1 0x0 PUSH2 0x1DE2 DUP3 PUSH2 0x1D45 JUMP JUMPDEST PUSH2 0x1DEC DUP2 DUP6 PUSH2 0x1D50 JUMP JUMPDEST SWAP4 POP PUSH2 0x1DF7 DUP4 PUSH2 0x1D61 JUMP JUMPDEST DUP1 PUSH1 0x0 JUMPDEST DUP4 DUP2 LT ISZERO PUSH2 0x1E28 JUMPI DUP2 MLOAD PUSH2 0x1E0F DUP9 DUP3 PUSH2 0x1DB2 JUMP JUMPDEST SWAP8 POP PUSH2 0x1E1A DUP4 PUSH2 0x1DCA JUMP JUMPDEST SWAP3 POP POP PUSH1 0x1 DUP2 ADD SWAP1 POP PUSH2 0x1DFB JUMP JUMPDEST POP DUP6 SWAP4 POP POP POP POP SWAP3 SWAP2 POP POP JUMP JUMPDEST PUSH1 0x0 PUSH1 0x20 DUP3 ADD SWAP1 POP DUP2 DUP2 SUB PUSH1 0x0 DUP4 ADD MSTORE PUSH2 0x1E4F DUP2 DUP5 PUSH2 0x1DD7 JUMP JUMPDEST SWAP1 POP SWAP3 SWAP2 POP POP JUMP JUMPDEST PUSH2 0x1E60 DUP2 PUSH2 0x1D91 JUMP JUMPDEST DUP2 EQ PUSH2 0x1E6B JUMPI PUSH1 0x0 DUP1 REVERT JUMPDEST POP JUMP JUMPDEST PUSH1 0x0 DUP2 CALLDATALOAD SWAP1 POP PUSH2 0x1E7D DUP2 PUSH2 0x1E57 JUMP JUMPDEST SWAP3 SWAP2 POP POP JUMP JUMPDEST PUSH1 0x0 PUSH1 0x20 DUP3 DUP5 SUB SLT ISZERO PUSH2 0x1E99 JUMPI PUSH2 0x1E98 PUSH2 0x1B34 JUMP JUMPDEST JUMPDEST PUSH1 0x0 PUSH2 0x1EA7 DUP5 DUP3 DUP6 ADD PUSH2 0x1E6E JUMP JUMPDEST SWAP2 POP POP SWAP3 SWAP2 POP POP JUMP JUMPDEST PUSH2 0x1EB9 DUP2 PUSH2 0x1D91 JUMP JUMPDEST DUP3 MSTORE POP POP JUMP JUMPDEST PUSH1 0x0 PUSH1 0x20 DUP3 ADD SWAP1 POP PUSH2 0x1ED4 PUSH1 0x0 DUP4 ADD DUP5 PUSH2 0x1EB0 JUMP JUMPDEST SWAP3 SWAP2 POP POP JUMP JUMPDEST PUSH1 0x0 PUSH1 0x40 DUP3 ADD SWAP1 POP PUSH2 0x1EEF PUSH1 0x0 DUP4 ADD DUP6 PUSH2 0x1EB0 JUMP JUMPDEST DUP2 DUP2 SUB PUSH1 0x20 DUP4 ADD MSTORE PUSH2 0x1F01 DUP2 DUP5 PUSH2 0x1ACF JUMP JUMPDEST SWAP1 POP SWAP4 SWAP3 POP POP POP JUMP JUMPDEST PUSH1 0x0 PUSH1 0xFF DUP3 AND SWAP1 POP SWAP2 SWAP1 POP JUMP JUMPDEST PUSH2 0x1F20 DUP2 PUSH2 0x1F0A JUMP JUMPDEST DUP2 EQ PUSH2 0x1F2B JUMPI PUSH1 0x0 DUP1 REVERT JUMPDEST POP JUMP JUMPDEST PUSH1 0x0 DUP2 CALLDATALOAD SWAP1 POP PUSH2 0x1F3D DUP2 PUSH2 0x1F17 JUMP JUMPDEST SWAP3 SWAP2 POP POP JUMP JUMPDEST PUSH1 0x0 DUP1 PUSH1 0x40 DUP4 DUP6 SUB SLT ISZERO PUSH2 0x1F5A JUMPI PUSH2 0x1F59 PUSH2 0x1B34 JUMP JUMPDEST JUMPDEST PUSH1 0x0 PUSH2 0x1F68 DUP6 DUP3 DUP7 ADD PUSH2 0x1B5F JUMP JUMPDEST SWAP3 POP POP PUSH1 0x20 PUSH2 0x1F79 DUP6 DUP3 DUP7 ADD PUSH2 0x1F2E JUMP JUMPDEST SWAP2 POP POP SWAP3 POP SWAP3 SWAP1 POP JUMP JUMPDEST PUSH1 0x0 DUP1 PUSH1 0x40 DUP4 DUP6 SUB SLT ISZERO PUSH2 0x1F9A JUMPI PUSH2 0x1F99 PUSH2 0x1B34 JUMP JUMPDEST JUMPDEST PUSH1 0x0 PUSH2 0x1FA8 DUP6 DUP3 DUP7 ADD PUSH2 0x1B5F JUMP JUMPDEST SWAP3 POP POP PUSH1 0x20 PUSH2 0x1FB9 DUP6 DUP3 DUP7 ADD PUSH2 0x1B5F JUMP JUMPDEST SWAP2 POP POP SWAP3 POP SWAP3 SWAP1 POP JUMP JUMPDEST PUSH1 0x0 DUP1 REVERT JUMPDEST PUSH1 0x0 PUSH8 0xFFFFFFFFFFFFFFFF DUP3 GT ISZERO PUSH2 0x1FE3 JUMPI PUSH2 0x1FE2 PUSH2 0x1B79 JUMP JUMPDEST JUMPDEST PUSH2 0x1FEC DUP3 PUSH2 0x1ABE JUMP JUMPDEST SWAP1 POP PUSH1 0x20 DUP2 ADD SWAP1 POP SWAP2 SWAP1 POP JUMP JUMPDEST DUP3 DUP2 DUP4 CALLDATACOPY PUSH1 0x0 DUP4 DUP4 ADD MSTORE POP POP POP JUMP JUMPDEST PUSH1 0x0 PUSH2 0x201B PUSH2 0x2016 DUP5 PUSH2 0x1FC8 JUMP JUMPDEST PUSH2 0x1BD9 JUMP JUMPDEST SWAP1 POP DUP3 DUP2 MSTORE PUSH1 0x20 DUP2 ADD DUP5 DUP5 DUP5 ADD GT ISZERO PUSH2 0x2037 JUMPI PUSH2 0x2036 PUSH2 0x1FC3 JUMP JUMPDEST JUMPDEST PUSH2 0x2042 DUP5 DUP3 DUP6 PUSH2 0x1FF9 JUMP JUMPDEST POP SWAP4 SWAP3 POP POP POP JUMP JUMPDEST PUSH1 0x0 DUP3 PUSH1 0x1F DUP4 ADD SLT PUSH2 0x205F JUMPI PUSH2 0x205E PUSH2 0x1B74 JUMP JUMPDEST JUMPDEST DUP2 CALLDATALOAD PUSH2 0x206F DUP5 DUP3 PUSH1 0x20 DUP7 ADD PUSH2 0x2008 JUMP JUMPDEST SWAP2 POP POP SWAP3 SWAP2 POP POP JUMP JUMPDEST PUSH1 0x0 PUSH1 0x20 DUP3 DUP5 SUB SLT ISZERO PUSH2 0x208E JUMPI PUSH2 0x208D PUSH2 0x1B34 JUMP JUMPDEST JUMPDEST PUSH1 0x0 DUP3 ADD CALLDATALOAD PUSH8 0xFFFFFFFFFFFFFFFF DUP2 GT ISZERO PUSH2 0x20AC JUMPI PUSH2 0x20AB PUSH2 0x1B39 JUMP JUMPDEST JUMPDEST PUSH2 0x20B8 DUP5 DUP3 DUP6 ADD PUSH2 0x204A JUMP JUMPDEST SWAP2 POP POP SWAP3 SWAP2 POP POP JUMP JUMPDEST PUSH2 0x20CA DUP2 PUSH2 0x1B3E JUMP JUMPDEST DUP3 MSTORE POP POP JUMP JUMPDEST PUSH1 0x0 PUSH1 0x20 DUP3 ADD SWAP1 POP PUSH2 0x20E5 PUSH1 0x0 DUP4 ADD DUP5 PUSH2 0x20C1 JUMP JUMPDEST SWAP3 SWAP2 POP POP JUMP JUMPDEST PUSH1 0x0 DUP2 ISZERO ISZERO SWAP1 POP SWAP2 SWAP1 POP JUMP JUMPDEST PUSH2 0x2100 DUP2 PUSH2 0x20EB JUMP JUMPDEST DUP3 MSTORE POP POP JUMP JUMPDEST PUSH1 0x0 PUSH1 0xA0 DUP3 ADD SWAP1 POP PUSH2 0x211B PUSH1 0x0 DUP4 ADD DUP9 PUSH2 0x1EB0 JUMP JUMPDEST DUP2 DUP2 SUB PUSH1 0x20 DUP4 ADD MSTORE PUSH2 0x212D DUP2 DUP8 PUSH2 0x1ACF JUMP JUMPDEST SWAP1 POP PUSH2 0x213C PUSH1 0x40 DUP4 ADD DUP7 PUSH2 0x20C1 JUMP JUMPDEST PUSH2 0x2149 PUSH1 0x60 DUP4 ADD DUP6 PUSH2 0x20F7 JUMP JUMPDEST PUSH2 0x2156 PUSH1 0x80 DUP4 ADD DUP5 PUSH2 0x20C1 JUMP JUMPDEST SWAP7 SWAP6 POP POP POP POP POP POP JUMP JUMPDEST PUSH1 0x0 PUSH8 0xFFFFFFFFFFFFFFFF DUP3 GT ISZERO PUSH2 0x217B JUMPI PUSH2 0x217A PUSH2 0x1B79 JUMP JUMPDEST JUMPDEST PUSH1 0x20 DUP3 MUL SWAP1 POP PUSH1 0x20 DUP2 ADD SWAP1 POP SWAP2 SWAP1 POP JUMP JUMPDEST PUSH1 0x0 PUSH2 0x219F PUSH2 0x219A DUP5 PUSH2 0x2160 JUMP JUMPDEST PUSH2 0x1BD9 JUMP JUMPDEST SWAP1 POP DUP1 DUP4 DUP3 MSTORE PUSH1 0x20 DUP3 ADD SWAP1 POP PUSH1 0x20 DUP5 MUL DUP4 ADD DUP6 DUP2 GT ISZERO PUSH2 0x21C2 JUMPI PUSH2 0x21C1 PUSH2 0x1C20 JUMP JUMPDEST JUMPDEST DUP4 JUMPDEST DUP2 DUP2 LT ISZERO PUSH2 0x2209 JUMPI DUP1 CALLDATALOAD PUSH8 0xFFFFFFFFFFFFFFFF DUP2 GT ISZERO PUSH2 0x21E7 JUMPI PUSH2 0x21E6 PUSH2 0x1B74 JUMP JUMPDEST JUMPDEST DUP1 DUP7 ADD PUSH2 0x21F4 DUP10 DUP3 PUSH2 0x204A JUMP JUMPDEST DUP6 MSTORE PUSH1 0x20 DUP6 ADD SWAP5 POP POP POP PUSH1 0x20 DUP2 ADD SWAP1 POP PUSH2 0x21C4 JUMP JUMPDEST POP POP POP SWAP4 SWAP3 POP POP POP JUMP JUMPDEST PUSH1 0x0 DUP3 PUSH1 0x1F DUP4 ADD SLT PUSH2 0x2228 JUMPI PUSH2 0x2227 PUSH2 0x1B74 JUMP JUMPDEST JUMPDEST DUP2 CALLDATALOAD PUSH2 0x2238 DUP5 DUP3 PUSH1 0x20 DUP7 ADD PUSH2 0x218C JUMP JUMPDEST SWAP2 POP POP SWAP3 SWAP2 POP POP JUMP JUMPDEST PUSH1 0x0 DUP1 PUSH1 0x40 DUP4 DUP6 SUB SLT ISZERO PUSH2 0x2258 JUMPI PUSH2 0x2257 PUSH2 0x1B34 JUMP JUMPDEST JUMPDEST PUSH1 0x0 PUSH2 0x2266 DUP6 DUP3 DUP7 ADD PUSH2 0x1B5F JUMP JUMPDEST SWAP3 POP POP PUSH1 0x20 DUP4 ADD CALLDATALOAD PUSH8 0xFFFFFFFFFFFFFFFF DUP2 GT ISZERO PUSH2 0x2287 JUMPI PUSH2 0x2286 PUSH2 0x1B39 JUMP JUMPDEST JUMPDEST PUSH2 0x2293 DUP6 DUP3 DUP7 ADD PUSH2 0x2213 JUMP JUMPDEST SWAP2 POP POP SWAP3 POP SWAP3 SWAP1 POP JUMP JUMPDEST PUSH32 0x4E487B7100000000000000000000000000000000000000000000000000000000 PUSH1 0x0 MSTORE PUSH1 0x22 PUSH1 0x4 MSTORE PUSH1 0x24 PUSH1 0x0 REVERT JUMPDEST PUSH1 0x0 PUSH1 0x2 DUP3 DIV SWAP1 POP PUSH1 0x1 DUP3 AND DUP1 PUSH2 0x22E4 JUMPI PUSH1 0x7F DUP3 AND SWAP2 POP JUMPDEST PUSH1 0x20 DUP3 LT DUP2 SUB PUSH2 0x22F7 JUMPI PUSH2 0x22F6 PUSH2 0x229D JUMP JUMPDEST JUMPDEST POP SWAP2 SWAP1 POP JUMP JUMPDEST PUSH1 0x0 PUSH1 0x40 DUP3 ADD SWAP1 POP PUSH2 0x2312 PUSH1 0x0 DUP4 ADD DUP6 PUSH2 0x1EB0 JUMP JUMPDEST PUSH2 0x231F PUSH1 0x20 DUP4 ADD DUP5 PUSH2 0x1EB0 JUMP JUMPDEST SWAP4 SWAP3 POP POP POP JUMP JUMPDEST PUSH32 0x496E76616C6964207375626D697373696F6E2049440000000000000000000000 PUSH1 0x0 DUP3 ADD MSTORE POP JUMP JUMPDEST PUSH1 0x0 PUSH2 0x235C PUSH1 0x15 DUP4 PUSH2 0x1A83 JUMP JUMPDEST SWAP2 POP PUSH2 0x2367 DUP3 PUSH2 0x2326 JUMP JUMPDEST PUSH1 0x20 DUP3 ADD SWAP1 POP SWAP2 SWAP1 POP JUMP JUMPDEST PUSH1 0x0 PUSH1 0x20 DUP3 ADD SWAP1 POP DUP2 DUP2 SUB PUSH1 0x0 DUP4 ADD MSTORE PUSH2 0x238B DUP2 PUSH2 0x234F JUMP JUMPDEST SWAP1 POP SWAP2 SWAP1 POP JUMP JUMPDEST PUSH32 0x4E487B7100000000000000000000000000000000000000000000000000000000 PUSH1 0x0 MSTORE PUSH1 0x32 PUSH1 0x4 MSTORE PUSH1 0x24 PUSH1 0x0 REVERT JUMPDEST PUSH1 0x0 DUP2 SWAP1 POP SWAP2 SWAP1 POP JUMP JUMPDEST PUSH2 0x23D4 DUP2 PUSH2 0x23C1 JUMP JUMPDEST DUP3 MSTORE POP POP JUMP JUMPDEST PUSH1 0x0 PUSH8 0xFFFFFFFFFFFFFFFF DUP3 AND SWAP1 POP SWAP2 SWAP1 POP JUMP JUMPDEST PUSH2 0x23F7 DUP2 PUSH2 0x23DA JUMP JUMPDEST DUP3 MSTORE POP POP JUMP JUMPDEST PUSH1 0x0 PUSH2 0xFFFF DUP3 AND SWAP1 POP SWAP2 SWAP1 POP JUMP JUMPDEST PUSH2 0x2414 DUP2 PUSH2 0x23FD JUMP JUMPDEST DUP3 MSTORE POP POP JUMP JUMPDEST PUSH1 0x0 PUSH4 0xFFFFFFFF DUP3 AND SWAP1 POP SWAP2 SWAP1 POP JUMP JUMPDEST PUSH2 0x2433 DUP2 PUSH2 0x241A JUMP JUMPDEST DUP3 MSTORE POP POP JUMP JUMPDEST PUSH1 0x0 PUSH1 0xA0 DUP3 ADD SWAP1 POP PUSH2 0x244E PUSH1 0x0 DUP4 ADD DUP9 PUSH2 0x23CB JUMP JUMPDEST PUSH2 0x245B PUSH1 0x20 DUP4 ADD DUP8 PUSH2 0x23EE JUMP JUMPDEST PUSH2 0x2468 PUSH1 0x40 DUP4 ADD DUP7 PUSH2 0x240B JUMP JUMPDEST PUSH2 0x2475 PUSH1 0x60 DUP4 ADD DUP6 PUSH2 0x242A JUMP JUMPDEST PUSH2 0x2482 PUSH1 0x80 DUP4 ADD DUP5 PUSH2 0x242A JUMP JUMPDEST SWAP7 SWAP6 POP POP POP POP POP POP JUMP JUMPDEST PUSH1 0x0 DUP2 MLOAD SWAP1 POP PUSH2 0x249B DUP2 PUSH2 0x1B48 JUMP JUMPDEST SWAP3 SWAP2 POP POP JUMP JUMPDEST PUSH1 0x0 PUSH1 0x20 DUP3 DUP5 SUB SLT ISZERO PUSH2 0x24B7 JUMPI PUSH2 0x24B6 PUSH2 0x1B34 JUMP JUMPDEST JUMPDEST PUSH1 0x0 PUSH2 0x24C5 DUP5 DUP3 DUP6 ADD PUSH2 0x248C JUMP JUMPDEST SWAP2 POP POP SWAP3 SWAP2 POP POP JUMP JUMPDEST PUSH32 0x4F6E6C7920746865206F776E65722063616E2061646420617574686F72732E00 PUSH1 0x0 DUP3 ADD MSTORE POP JUMP JUMPDEST PUSH1 0x0 PUSH2 0x2504 PUSH1 0x1F DUP4 PUSH2 0x1A83 JUMP JUMPDEST SWAP2 POP PUSH2 0x250F DUP3 PUSH2 0x24CE JUMP JUMPDEST PUSH1 0x20 DUP3 ADD SWAP1 POP SWAP2 SWAP1 POP JUMP JUMPDEST PUSH1 0x0 PUSH1 0x20 DUP3 ADD SWAP1 POP DUP2 DUP2 SUB PUSH1 0x0 DUP4 ADD MSTORE PUSH2 0x2533 DUP2 PUSH2 0x24F7 JUMP JUMPDEST SWAP1 POP SWAP2 SWAP1 POP JUMP JUMPDEST PUSH32 0x5375626D697373696F6E20646F6573206E6F742065786973742E000000000000 PUSH1 0x0 DUP3 ADD MSTORE POP JUMP JUMPDEST PUSH1 0x0 PUSH2 0x2570 PUSH1 0x1A DUP4 PUSH2 0x1A83 JUMP JUMPDEST SWAP2 POP PUSH2 0x257B DUP3 PUSH2 0x253A JUMP JUMPDEST PUSH1 0x20 DUP3 ADD SWAP1 POP SWAP2 SWAP1 POP JUMP JUMPDEST PUSH1 0x0 PUSH1 0x20 DUP3 ADD SWAP1 POP DUP2 DUP2 SUB PUSH1 0x0 DUP4 ADD MSTORE PUSH2 0x259F DUP2 PUSH2 0x2563 JUMP JUMPDEST SWAP1 POP SWAP2 SWAP1 POP JUMP JUMPDEST PUSH32 0x4F6E6C792073656C6563746564207265766965776572732063616E2063617374 PUSH1 0x0 DUP3 ADD MSTORE PUSH32 0x20766F7465730000000000000000000000000000000000000000000000000000 PUSH1 0x20 DUP3 ADD MSTORE POP JUMP JUMPDEST PUSH1 0x0 PUSH2 0x2602 PUSH1 0x26 DUP4 PUSH2 0x1A83 JUMP JUMPDEST SWAP2 POP PUSH2 0x260D DUP3 PUSH2 0x25A6 JUMP JUMPDEST PUSH1 0x40 DUP3 ADD SWAP1 POP SWAP2 SWAP1 POP JUMP JUMPDEST PUSH1 0x0 PUSH1 0x20 DUP3 ADD SWAP1 POP DUP2 DUP2 SUB PUSH1 0x0 DUP4 ADD MSTORE PUSH2 0x2631 DUP2 PUSH2 0x25F5 JUMP JUMPDEST SWAP1 POP SWAP2 SWAP1 POP JUMP JUMPDEST PUSH32 0x53656C65637420612076616C6964206F7074696F6E0000000000000000000000 PUSH1 0x0 DUP3 ADD MSTORE POP JUMP JUMPDEST PUSH1 0x0 PUSH2 0x266E PUSH1 0x15 DUP4 PUSH2 0x1A83 JUMP JUMPDEST SWAP2 POP PUSH2 0x2679 DUP3 PUSH2 0x2638 JUMP JUMPDEST PUSH1 0x20 DUP3 ADD SWAP1 POP SWAP2 SWAP1 POP JUMP JUMPDEST PUSH1 0x0 PUSH1 0x20 DUP3 ADD SWAP1 POP DUP2 DUP2 SUB PUSH1 0x0 DUP4 ADD MSTORE PUSH2 0x269D DUP2 PUSH2 0x2661 JUMP JUMPDEST SWAP1 POP SWAP2 SWAP1 POP JUMP JUMPDEST PUSH32 0x4E6F7420656E6F7567682072657669657765727320746F207265766965772074 PUSH1 0x0 DUP3 ADD MSTORE PUSH32 0x686520736F6E6700000000000000000000000000000000000000000000000000 PUSH1 0x20 DUP3 ADD MSTORE POP JUMP JUMPDEST PUSH1 0x0 PUSH2 0x2700 PUSH1 0x27 DUP4 PUSH2 0x1A83 JUMP JUMPDEST SWAP2 POP PUSH2 0x270B DUP3 PUSH2 0x26A4 JUMP JUMPDEST PUSH1 0x40 DUP3 ADD SWAP1 POP SWAP2 SWAP1 POP JUMP JUMPDEST PUSH1 0x0 PUSH1 0x20 DUP3 ADD SWAP1 POP DUP2 DUP2 SUB PUSH1 0x0 DUP4 ADD MSTORE PUSH2 0x272F DUP2 PUSH2 0x26F3 JUMP JUMPDEST SWAP1 POP SWAP2 SWAP1 POP JUMP JUMPDEST PUSH32 0x4F6E6C7920746865206F776E65722063616E2061646420726576696577657273 PUSH1 0x0 DUP3 ADD MSTORE PUSH32 0x2E00000000000000000000000000000000000000000000000000000000000000 PUSH1 0x20 DUP3 ADD MSTORE POP JUMP JUMPDEST PUSH1 0x0 PUSH2 0x2792 PUSH1 0x21 DUP4 PUSH2 0x1A83 JUMP JUMPDEST SWAP2 POP PUSH2 0x279D DUP3 PUSH2 0x2736 JUMP JUMPDEST PUSH1 0x40 DUP3 ADD SWAP1 POP SWAP2 SWAP1 POP JUMP JUMPDEST PUSH1 0x0 PUSH1 0x20 DUP3 ADD SWAP1 POP DUP2 DUP2 SUB PUSH1 0x0 DUP4 ADD MSTORE PUSH2 0x27C1 DUP2 PUSH2 0x2785 JUMP JUMPDEST SWAP1 POP SWAP2 SWAP1 POP JUMP JUMPDEST PUSH32 0x4F6E6C7920746865206F776E65722063616E2073657420746865207468726573 PUSH1 0x0 DUP3 ADD MSTORE PUSH32 0x686F6C6420746F20706173732E00000000000000000000000000000000000000 PUSH1 0x20 DUP3 ADD MSTORE POP JUMP JUMPDEST PUSH1 0x0 PUSH2 0x2824 PUSH1 0x2D DUP4 PUSH2 0x1A83 JUMP JUMPDEST SWAP2 POP PUSH2 0x282F DUP3 PUSH2 0x27C8 JUMP JUMPDEST PUSH1 0x40 DUP3 ADD SWAP1 POP SWAP2 SWAP1 POP JUMP JUMPDEST PUSH1 0x0 PUSH1 0x20 DUP3 ADD SWAP1 POP DUP2 DUP2 SUB PUSH1 0x0 DUP4 ADD MSTORE PUSH2 0x2853 DUP2 PUSH2 0x2817 JUMP JUMPDEST SWAP1 POP SWAP2 SWAP1 POP JUMP JUMPDEST PUSH1 0x0 DUP2 SWAP1 POP DUP2 PUSH1 0x0 MSTORE PUSH1 0x20 PUSH1 0x0 KECCAK256 SWAP1 POP SWAP2 SWAP1 POP JUMP JUMPDEST PUSH1 0x0 PUSH1 0x20 PUSH1 0x1F DUP4 ADD DIV SWAP1 POP SWAP2 SWAP1 POP JUMP JUMPDEST PUSH1 0x0 DUP3 DUP3 SHL SWAP1 POP SWAP3 SWAP2 POP POP JUMP JUMPDEST PUSH1 0x0 PUSH1 0x8 DUP4 MUL PUSH2 0x28BC PUSH32 0xFFFFFFFFFFFFFFFFFFFFFFFFFFFFFFFFFFFFFFFFFFFFFFFFFFFFFFFFFFFFFFFF DUP3 PUSH2 0x287F JUMP JUMPDEST PUSH2 0x28C6 DUP7 DUP4 PUSH2 0x287F JUMP JUMPDEST SWAP6 POP DUP1 NOT DUP5 AND SWAP4 POP DUP1 DUP7 AND DUP5 OR SWAP3 POP POP POP SWAP4 SWAP3 POP POP POP JUMP JUMPDEST PUSH1 0x0 DUP2 SWAP1 POP SWAP2 SWAP1 POP JUMP JUMPDEST PUSH1 0x0 PUSH2 0x2903 PUSH2 0x28FE PUSH2 0x28F9 DUP5 PUSH2 0x1B3E JUMP JUMPDEST PUSH2 0x28DE JUMP JUMPDEST PUSH2 0x1B3E JUMP JUMPDEST SWAP1 POP SWAP2 SWAP1 POP JUMP JUMPDEST PUSH1 0x0 DUP2 SWAP1 POP SWAP2 SWAP1 POP JUMP JUMPDEST PUSH2 0x291D DUP4 PUSH2 0x28E8 JUMP JUMPDEST PUSH2 0x2931 PUSH2 0x2929 DUP3 PUSH2 0x290A JUMP JUMPDEST DUP5 DUP5 SLOAD PUSH2 0x288C JUMP JUMPDEST DUP3 SSTORE POP POP POP POP JUMP JUMPDEST PUSH1 0x0 SWAP1 JUMP JUMPDEST PUSH2 0x2946 PUSH2 0x2939 JUMP JUMPDEST PUSH2 0x2951 DUP2 DUP5 DUP5 PUSH2 0x2914 JUMP JUMPDEST POP POP POP JUMP JUMPDEST JUMPDEST DUP2 DUP2 LT ISZERO PUSH2 0x2975 JUMPI PUSH2 0x296A PUSH1 0x0 DUP3 PUSH2 0x293E JUMP JUMPDEST PUSH1 0x1 DUP2 ADD SWAP1 POP PUSH2 0x2957 JUMP JUMPDEST POP POP JUMP JUMPDEST PUSH1 0x1F DUP3 GT ISZERO PUSH2 0x29BA JUMPI PUSH2 0x298B DUP2 PUSH2 0x285A JUMP JUMPDEST PUSH2 0x2994 DUP5 PUSH2 0x286F JUMP JUMPDEST DUP2 ADD PUSH1 0x20 DUP6 LT ISZERO PUSH2 0x29A3 JUMPI DUP2 SWAP1 POP JUMPDEST PUSH2 0x29B7 PUSH2 0x29AF DUP6 PUSH2 0x286F JUMP JUMPDEST DUP4 ADD DUP3 PUSH2 0x2956 JUMP JUMPDEST POP POP JUMPDEST POP POP POP JUMP JUMPDEST PUSH1 0x0 DUP3 DUP3 SHR SWAP1 POP SWAP3 SWAP2 POP POP JUMP JUMPDEST PUSH1 0x0 PUSH2 0x29DD PUSH1 0x0 NOT DUP5 PUSH1 0x8 MUL PUSH2 0x29BF JUMP JUMPDEST NOT DUP1 DUP4 AND SWAP2 POP POP SWAP3 SWAP2 POP POP JUMP JUMPDEST PUSH1 0x0 PUSH2 0x29F6 DUP4 DUP4 PUSH2 0x29CC JUMP JUMPDEST SWAP2 POP DUP3 PUSH1 0x2 MUL DUP3 OR SWAP1 POP SWAP3 SWAP2 POP POP JUMP JUMPDEST PUSH2 0x2A0F DUP3 PUSH2 0x1A78 JUMP JUMPDEST PUSH8 0xFFFFFFFFFFFFFFFF DUP2 GT ISZERO PUSH2 0x2A28 JUMPI PUSH2 0x2A27 PUSH2 0x1B79 JUMP JUMPDEST JUMPDEST PUSH2 0x2A32 DUP3 SLOAD PUSH2 0x22CC JUMP JUMPDEST PUSH2 0x2A3D DUP3 DUP3 DUP6 PUSH2 0x2979 JUMP JUMPDEST PUSH1 0x0 PUSH1 0x20 SWAP1 POP PUSH1 0x1F DUP4 GT PUSH1 0x1 DUP2 EQ PUSH2 0x2A70 JUMPI PUSH1 0x0 DUP5 ISZERO PUSH2 0x2A5E JUMPI DUP3 DUP8 ADD MLOAD SWAP1 POP JUMPDEST PUSH2 0x2A68 DUP6 DUP3 PUSH2 0x29EA JUMP JUMPDEST DUP7 SSTORE POP PUSH2 0x2AD0 JUMP JUMPDEST PUSH1 0x1F NOT DUP5 AND PUSH2 0x2A7E DUP7 PUSH2 0x285A JUMP JUMPDEST PUSH1 0x0 JUMPDEST DUP3 DUP2 LT ISZERO PUSH2 0x2AA6 JUMPI DUP5 DUP10 ADD MLOAD DUP3 SSTORE PUSH1 0x1 DUP3 ADD SWAP2 POP PUSH1 0x20 DUP6 ADD SWAP5 POP PUSH1 0x20 DUP2 ADD SWAP1 POP PUSH2 0x2A81 JUMP JUMPDEST DUP7 DUP4 LT ISZERO PUSH2 0x2AC3 JUMPI DUP5 DUP10 ADD MLOAD PUSH2 0x2ABF PUSH1 0x1F DUP10 AND DUP3 PUSH2 0x29CC JUMP JUMPDEST DUP4 SSTORE POP JUMPDEST PUSH1 0x1 PUSH1 0x2 DUP9 MUL ADD DUP9 SSTORE POP POP POP JUMPDEST POP POP POP POP POP POP JUMP JUMPDEST PUSH32 0x4E487B7100000000000000000000000000000000000000000000000000000000 PUSH1 0x0 MSTORE PUSH1 0x11 PUSH1 0x4 MSTORE PUSH1 0x24 PUSH1 0x0 REVERT JUMPDEST PUSH1 0x0 PUSH2 0x2B12 DUP3 PUSH2 0x1B3E JUMP JUMPDEST SWAP2 POP PUSH2 0x2B1D DUP4 PUSH2 0x1B3E JUMP JUMPDEST SWAP3 POP DUP3 DUP3 SUB SWAP1 POP DUP2 DUP2 GT ISZERO PUSH2 0x2B35 JUMPI PUSH2 0x2B34 PUSH2 0x2AD8 JUMP JUMPDEST JUMPDEST SWAP3 SWAP2 POP POP JUMP JUMPDEST PUSH1 0x0 PUSH2 0x2B46 DUP3 PUSH2 0x1B3E JUMP JUMPDEST SWAP2 POP PUSH2 0x2B51 DUP4 PUSH2 0x1B3E JUMP JUMPDEST SWAP3 POP DUP3 DUP3 ADD SWAP1 POP DUP1 DUP3 GT ISZERO PUSH2 0x2B69 JUMPI PUSH2 0x2B68 PUSH2 0x2AD8 JUMP JUMPDEST JUMPDEST SWAP3 SWAP2 POP POP JUMP JUMPDEST PUSH1 0x0 PUSH2 0x2B7A DUP3 PUSH2 0x1F0A JUMP JUMPDEST SWAP2 POP PUSH1 0xFF DUP3 SUB PUSH2 0x2B8D JUMPI PUSH2 0x2B8C PUSH2 0x2AD8 JUMP JUMPDEST JUMPDEST PUSH1 0x1 DUP3 ADD SWAP1 POP SWAP2 SWAP1 POP JUMP JUMPDEST PUSH1 0x0 PUSH2 0x2BA3 DUP3 PUSH2 0x1B3E JUMP JUMPDEST SWAP2 POP PUSH2 0x2BAE DUP4 PUSH2 0x1B3E JUMP JUMPDEST SWAP3 POP DUP3 DUP3 MUL PUSH2 0x2BBC DUP2 PUSH2 0x1B3E JUMP JUMPDEST SWAP2 POP DUP3 DUP3 DIV DUP5 EQ DUP4 ISZERO OR PUSH2 0x2BD3 JUMPI PUSH2 0x2BD2 PUSH2 0x2AD8 JUMP JUMPDEST JUMPDEST POP SWAP3 SWAP2 POP POP JUMP JUMPDEST PUSH1 0x0 PUSH1 0x40 DUP3 ADD SWAP1 POP PUSH2 0x2BEF PUSH1 0x0 DUP4 ADD DUP6 PUSH2 0x20C1 JUMP JUMPDEST PUSH2 0x2BFC PUSH1 0x20 DUP4 ADD DUP5 PUSH2 0x20F7 JUMP JUMPDEST SWAP4 SWAP3 POP POP POP JUMP JUMPDEST PUSH32 0x4F6E6C7920746865206F776E65722063616E20736574206F7074696F6E732E00 PUSH1 0x0 DUP3 ADD MSTORE POP JUMP JUMPDEST PUSH1 0x0 PUSH2 0x2C39 PUSH1 0x1F DUP4 PUSH2 0x1A83 JUMP JUMPDEST SWAP2 POP PUSH2 0x2C44 DUP3 PUSH2 0x2C03 JUMP JUMPDEST PUSH1 0x20 DUP3 ADD SWAP1 POP SWAP2 SWAP1 POP JUMP JUMPDEST PUSH1 0x0 PUSH1 0x20 DUP3 ADD SWAP1 POP DUP2 DUP2 SUB PUSH1 0x0 DUP4 ADD MSTORE PUSH2 0x2C68 DUP2 PUSH2 0x2C2C JUMP JUMPDEST SWAP1 POP SWAP2 SWAP1 POP JUMP JUMPDEST PUSH1 0x0 PUSH2 0x2C7A DUP3 PUSH2 0x241A JUMP JUMPDEST SWAP2 POP PUSH2 0x2C85 DUP4 PUSH2 0x241A JUMP JUMPDEST SWAP3 POP DUP3 DUP3 ADD SWAP1 POP PUSH4 0xFFFFFFFF DUP2 GT ISZERO PUSH2 0x2CA1 JUMPI PUSH2 0x2CA0 PUSH2 0x2AD8 JUMP JUMPDEST JUMPDEST SWAP3 SWAP2 POP POP JUMP JUMPDEST PUSH1 0x0 PUSH1 0x40 DUP3 ADD SWAP1 POP PUSH2 0x2CBC PUSH1 0x0 DUP4 ADD DUP6 PUSH2 0x20C1 JUMP JUMPDEST PUSH2 0x2CC9 PUSH1 0x20 DUP4 ADD DUP5 PUSH2 0x20C1 JUMP JUMPDEST SWAP4 SWAP3 POP POP POP JUMP JUMPDEST PUSH32 0x4E487B7100000000000000000000000000000000000000000000000000000000 PUSH1 0x0 MSTORE PUSH1 0x12 PUSH1 0x4 MSTORE PUSH1 0x24 PUSH1 0x0 REVERT JUMPDEST PUSH1 0x0 PUSH2 0x2D0A DUP3 PUSH2 0x1B3E JUMP JUMPDEST SWAP2 POP PUSH2 0x2D15 DUP4 PUSH2 0x1B3E JUMP JUMPDEST SWAP3 POP DUP3 PUSH2 0x2D25 JUMPI PUSH2 0x2D24 PUSH2 0x2CD0 JUMP JUMPDEST JUMPDEST DUP3 DUP3 MOD SWAP1 POP SWAP3 SWAP2 POP POP JUMP INVALID LOG2 PUSH5 0x6970667358 0x22 SLT KECCAK256 DUP11 PC 0xEE 0xE5 0xFC DUP4 COINBASE DUP16 0x26 CHAINID 0xAC BYTE XOR CALLER 0xF7 BASEFEE PUSH0 DUP7 POP 0xD5 SSTORE PUSH13 0xD012696582B3BFBC786D64736F PUSH13 0x63430008180033000000000000 "},"methodIdentifiers":{"LICENSE()":"0a912fc4","ROI_DENOMINATOR()":"b84cb694","addAuthor(address)":"2ddbc97e","addReviewer(address)":"73a82b5f","assignRndSeed(uint256)":"2af74bb5","authors(uint256)":"3db804da","castVote(uint256,uint8)":"56781388","getReviewer(uint256)":"31d4655c","getSelectedReviewers(uint256)":"26ee8b91","getSubmission(uint256)":"3e8686cc","owner()":"8da5cb5b","rawFulfillRandomWords(uint256,uint256[])":"1fe543e3","revealResult(uint256)":"d2b7e59a","reviewers(uint256)":"9cc616f6","selectReviewers(uint256)":"6d10dece","setOptions(uint256,string[])":"fb7c72e5","setThresholdToPass(uint256,uint256)":"9550b002","submissions(uint256)":"ad73349e","submitData(string)":"a2aac7ab"}}}}}