{
  "_format": "hh-sol-artifact-1",
  "contractName": "Review",
  "sourceName": "contracts/Review.sol",
  "abi": [
    {
      "inputs": [
        {
          "internalType": "string",
          "name": "_license",
          "type": "string"
        },
        {
          "internalType": "uint256",
          "name": "_roiDenominator",
          "type": "uint256"
        },
        {
          "internalType": "uint64",
          "name": "_vrfSubscriptionId",
          "type": "uint64"
        },
        {
          "internalType": "address",
          "name": "_vrfCoordinator",
          "type": "address"
        },
        {
          "internalType": "bytes32",
          "name": "_vrfKeyHash",
          "type": "bytes32"
        },
        {
          "internalType": "uint32",
          "name": "_requiredReviews",
          "type": "uint32"
        }
      ],
      "stateMutability": "nonpayable",
      "type": "constructor"
    },
    {
      "inputs": [
        {
          "internalType": "address",
          "name": "have",
          "type": "address"
        },
        {
          "internalType": "address",
          "name": "want",
          "type": "address"
        }
      ],
      "name": "OnlyCoordinatorCanFulfill",
      "type": "error"
    },
    {
      "anonymous": false,
      "inputs": [
        {
          "indexed": false,
          "internalType": "uint256",
          "name": "submissionId",
          "type": "uint256"
        }
      ],
      "name": "RandomWordFulfilled",
      "type": "event"
    },
    {
      "anonymous": false,
      "inputs": [
        {
          "indexed": false,
          "internalType": "uint256",
          "name": "submissionId",
          "type": "uint256"
        },
        {
          "indexed": false,
          "internalType": "bool",
          "name": "result",
          "type": "bool"
        }
      ],
      "name": "ResultRevealed",
      "type": "event"
    },
    {
      "anonymous": false,
      "inputs": [
        {
          "indexed": false,
          "internalType": "uint256",
          "name": "submissionId",
          "type": "uint256"
        },
        {
          "indexed": false,
          "internalType": "address[]",
          "name": "reviewers",
          "type": "address[]"
        }
      ],
      "name": "ReviewersChosen",
      "type": "event"
    },
    {
      "anonymous": false,
      "inputs": [
        {
          "indexed": true,
          "internalType": "uint256",
          "name": "submissionId",
          "type": "uint256"
        }
      ],
      "name": "SubmissionCreated",
      "type": "event"
    },
    {
      "anonymous": false,
      "inputs": [
        {
          "indexed": false,
          "internalType": "uint256",
          "name": "submissionIndex",
          "type": "uint256"
        }
      ],
      "name": "VotingCompleted",
      "type": "event"
    },
    {
      "inputs": [],
      "name": "LICENSE",
      "outputs": [
        {
          "internalType": "string",
          "name": "",
          "type": "string"
        }
      ],
      "stateMutability": "view",
      "type": "function"
    },
    {
      "inputs": [],
      "name": "ROI_DENOMINATOR",
      "outputs": [
        {
          "internalType": "uint256",
          "name": "",
          "type": "uint256"
        }
      ],
      "stateMutability": "view",
      "type": "function"
    },
    {
      "inputs": [
        {
          "internalType": "address",
          "name": "_author",
          "type": "address"
        }
      ],
      "name": "addAuthor",
      "outputs": [],
      "stateMutability": "nonpayable",
      "type": "function"
    },
    {
      "inputs": [
        {
          "internalType": "address",
          "name": "_reviewer",
          "type": "address"
        }
      ],
      "name": "addReviewer",
      "outputs": [],
      "stateMutability": "nonpayable",
      "type": "function"
    },
    {
      "inputs": [
        {
          "internalType": "uint256",
          "name": "submissionId",
          "type": "uint256"
        }
      ],
      "name": "assignRndSeed",
      "outputs": [],
      "stateMutability": "nonpayable",
      "type": "function"
    },
    {
      "inputs": [
        {
          "internalType": "uint256",
          "name": "",
          "type": "uint256"
        }
      ],
      "name": "authors",
      "outputs": [
        {
          "internalType": "address",
          "name": "",
          "type": "address"
        }
      ],
      "stateMutability": "view",
      "type": "function"
    },
    {
      "inputs": [
        {
          "internalType": "uint256",
          "name": "submissionIndex",
          "type": "uint256"
        },
        {
          "internalType": "uint8",
          "name": "option",
          "type": "uint8"
        }
      ],
      "name": "castVote",
      "outputs": [],
      "stateMutability": "nonpayable",
      "type": "function"
    },
    {
      "inputs": [
        {
          "internalType": "uint256",
          "name": "index",
          "type": "uint256"
        }
      ],
      "name": "getReviewer",
      "outputs": [
        {
          "internalType": "address",
          "name": "",
          "type": "address"
        }
      ],
      "stateMutability": "view",
      "type": "function"
    },
    {
      "inputs": [
        {
          "internalType": "uint256",
          "name": "submissionId",
          "type": "uint256"
        }
      ],
      "name": "getSelectedReviewers",
      "outputs": [
        {
          "internalType": "address[]",
          "name": "",
          "type": "address[]"
        }
      ],
      "stateMutability": "view",
      "type": "function"
    },
    {
      "inputs": [
        {
          "internalType": "uint256",
          "name": "submissionId",
          "type": "uint256"
        }
      ],
      "name": "getSubmission",
      "outputs": [
        {
          "internalType": "address",
          "name": "author",
          "type": "address"
        },
        {
          "internalType": "uint8[][]",
          "name": "data",
          "type": "uint8[][]"
        }
      ],
      "stateMutability": "view",
      "type": "function"
    },
    {
      "inputs": [],
      "name": "owner",
      "outputs": [
        {
          "internalType": "address",
          "name": "",
          "type": "address"
        }
      ],
      "stateMutability": "view",
      "type": "function"
    },
    {
      "inputs": [
        {
          "internalType": "uint256",
          "name": "requestId",
          "type": "uint256"
        },
        {
          "internalType": "uint256[]",
          "name": "randomWords",
          "type": "uint256[]"
        }
      ],
      "name": "rawFulfillRandomWords",
      "outputs": [],
      "stateMutability": "nonpayable",
      "type": "function"
    },
    {
      "inputs": [],
      "name": "requiredReviews",
      "outputs": [
        {
          "internalType": "uint32",
          "name": "",
          "type": "uint32"
        }
      ],
      "stateMutability": "view",
      "type": "function"
    },
    {
      "inputs": [
        {
          "internalType": "uint256",
          "name": "submissionIndex",
          "type": "uint256"
        }
      ],
      "name": "revealResult",
      "outputs": [],
      "stateMutability": "nonpayable",
      "type": "function"
    },
    {
      "inputs": [
        {
          "internalType": "uint256",
          "name": "",
          "type": "uint256"
        }
      ],
      "name": "reviewers",
      "outputs": [
        {
          "internalType": "address",
          "name": "addr",
          "type": "address"
        }
      ],
      "stateMutability": "view",
      "type": "function"
    },
    {
      "inputs": [
        {
          "internalType": "uint256",
          "name": "submissionId",
          "type": "uint256"
        }
      ],
      "name": "selectReviewers",
      "outputs": [
        {
          "internalType": "address[]",
          "name": "",
          "type": "address[]"
        }
      ],
      "stateMutability": "nonpayable",
      "type": "function"
    },
    {
      "inputs": [
        {
          "internalType": "uint256",
          "name": "submissionIndex",
          "type": "uint256"
        },
        {
          "internalType": "string[]",
          "name": "options",
          "type": "string[]"
        }
      ],
      "name": "setOptions",
      "outputs": [],
      "stateMutability": "nonpayable",
      "type": "function"
    },
    {
      "inputs": [
        {
          "internalType": "uint256",
          "name": "submissionIndex",
          "type": "uint256"
        },
        {
          "internalType": "uint256",
          "name": "threshold",
          "type": "uint256"
        }
      ],
      "name": "setThresholdToPass",
      "outputs": [],
      "stateMutability": "nonpayable",
      "type": "function"
    },
    {
      "inputs": [
        {
          "internalType": "uint256",
          "name": "",
          "type": "uint256"
        }
      ],
      "name": "submissions",
      "outputs": [
        {
          "internalType": "address",
          "name": "author",
          "type": "address"
        },
        {
          "internalType": "uint256",
          "name": "thresholdToPass",
          "type": "uint256"
        },
        {
          "internalType": "bool",
          "name": "isApproved",
          "type": "bool"
        },
        {
          "internalType": "uint256",
          "name": "seed",
          "type": "uint256"
        },
        {
          "internalType": "uint32",
          "name": "votedAlready",
          "type": "uint32"
        }
      ],
      "stateMutability": "view",
      "type": "function"
    },
    {
      "inputs": [
        {
          "internalType": "uint8[][]",
          "name": "_data",
          "type": "uint8[][]"
        }
      ],
      "name": "submitData",
      "outputs": [
        {
          "internalType": "uint256",
          "name": "",
          "type": "uint256"
        }
      ],
      "stateMutability": "nonpayable",
      "type": "function"
    }
  ],
  "bytecode": "0x61010060405260016000806101000a81548163ffffffff021916908363ffffffff16021790555063ffffffff600760006101000a81548163ffffffff021916908363ffffffff1602179055503480156200005857600080fd5b5060405162003d3938038062003d3983398181016040528101906200007e919062000486565b828073ffffffffffffffffffffffffffffffffffffffff1660808173ffffffffffffffffffffffffffffffffffffffff1681525050508560059081620000c5919062000782565b508460068190555033600760046101000a81548173ffffffffffffffffffffffffffffffffffffffff021916908373ffffffffffffffffffffffffffffffffffffffff1602179055508273ffffffffffffffffffffffffffffffffffffffff1660a08173ffffffffffffffffffffffffffffffffffffffff16815250508160e081815250508367ffffffffffffffff1660c08167ffffffffffffffff1681525050806000806101000a81548163ffffffff021916908363ffffffff16021790555050505050505062000869565b6000604051905090565b600080fd5b600080fd5b600080fd5b600080fd5b6000601f19601f8301169050919050565b7f4e487b7100000000000000000000000000000000000000000000000000000000600052604160045260246000fd5b620001fb82620001b0565b810181811067ffffffffffffffff821117156200021d576200021c620001c1565b5b80604052505050565b60006200023262000192565b9050620002408282620001f0565b919050565b600067ffffffffffffffff821115620002635762000262620001c1565b5b6200026e82620001b0565b9050602081019050919050565b60005b838110156200029b5780820151818401526020810190506200027e565b60008484015250505050565b6000620002be620002b88462000245565b62000226565b905082815260208101848484011115620002dd57620002dc620001ab565b5b620002ea8482856200027b565b509392505050565b600082601f8301126200030a5762000309620001a6565b5b81516200031c848260208601620002a7565b91505092915050565b6000819050919050565b6200033a8162000325565b81146200034657600080fd5b50565b6000815190506200035a816200032f565b92915050565b600067ffffffffffffffff82169050919050565b6200037f8162000360565b81146200038b57600080fd5b50565b6000815190506200039f8162000374565b92915050565b600073ffffffffffffffffffffffffffffffffffffffff82169050919050565b6000620003d282620003a5565b9050919050565b620003e481620003c5565b8114620003f057600080fd5b50565b6000815190506200040481620003d9565b92915050565b6000819050919050565b6200041f816200040a565b81146200042b57600080fd5b50565b6000815190506200043f8162000414565b92915050565b600063ffffffff82169050919050565b620004608162000445565b81146200046c57600080fd5b50565b600081519050620004808162000455565b92915050565b60008060008060008060c08789031215620004a657620004a56200019c565b5b600087015167ffffffffffffffff811115620004c757620004c6620001a1565b5b620004d589828a01620002f2565b9650506020620004e889828a0162000349565b9550506040620004fb89828a016200038e565b94505060606200050e89828a01620003f3565b93505060806200052189828a016200042e565b92505060a06200053489828a016200046f565b9150509295509295509295565b600081519050919050565b7f4e487b7100000000000000000000000000000000000000000000000000000000600052602260045260246000fd5b600060028204905060018216806200059457607f821691505b602082108103620005aa57620005a96200054c565b5b50919050565b60008190508160005260206000209050919050565b60006020601f8301049050919050565b600082821b905092915050565b600060088302620006147fffffffffffffffffffffffffffffffffffffffffffffffffffffffffffffffff82620005d5565b620006208683620005d5565b95508019841693508086168417925050509392505050565b6000819050919050565b6000620006636200065d620006578462000325565b62000638565b62000325565b9050919050565b6000819050919050565b6200067f8362000642565b620006976200068e826200066a565b848454620005e2565b825550505050565b600090565b620006ae6200069f565b620006bb81848462000674565b505050565b5b81811015620006e357620006d7600082620006a4565b600181019050620006c1565b5050565b601f8211156200073257620006fc81620005b0565b6200070784620005c5565b8101602085101562000717578190505b6200072f6200072685620005c5565b830182620006c0565b50505b505050565b600082821c905092915050565b6000620007576000198460080262000737565b1980831691505092915050565b600062000772838362000744565b9150826002028217905092915050565b6200078d8262000541565b67ffffffffffffffff811115620007a957620007a8620001c1565b5b620007b582546200057b565b620007c2828285620006e7565b600060209050601f831160018114620007fa5760008415620007e5578287015190505b620007f1858262000764565b86555062000861565b601f1984166200080a86620005b0565b60005b8281101562000834578489015182556001820191506020850194506020810190506200080d565b8683101562000854578489015162000850601f89168262000744565b8355505b6001600288020188555050505b505050505050565b60805160a05160c05160e05161348f620008aa60003960006106dd015260006106fe015260006106a101526000818161049e01526104f2015261348f6000f3fe608060405234801561001057600080fd5b506004361061012c5760003560e01c80636d10dece116100ad578063a7d843ce11610071578063a7d843ce14610354578063ad73349e14610384578063b84cb694146103b8578063d2b7e59a146103d6578063fb7c72e5146103f25761012c565b80636d10dece1461029e57806373a82b5f146102ce5780638da5cb5b146102ea5780639550b002146103085780639cc616f6146103245761012c565b806331d4655c116100f457806331d4655c146101d35780633db804da146102035780633e8686cc14610233578063509bc1c81461026457806356781388146102825761012c565b80630a912fc4146101315780631fe543e31461014f57806326ee8b911461016b5780632af74bb51461019b5780632ddbc97e146101b7575b600080fd5b61013961040e565b6040516101469190611ec9565b60405180910390f35b6101696004803603810190610164919061207d565b61049c565b005b610185600480360381019061018091906120d9565b61055c565b60405161019291906121f6565b60405180910390f35b6101b560048036038101906101b091906120d9565b610656565b005b6101d160048036038101906101cc9190612244565b6107a6565b005b6101ed60048036038101906101e891906120d9565b61089c565b6040516101fa9190612280565b60405180910390f35b61021d600480360381019061021891906120d9565b6108ec565b60405161022a9190612280565b60405180910390f35b61024d600480360381019061024891906120d9565b61092b565b60405161025b929190612428565b60405180910390f35b61026c610a8e565b6040516102799190612477565b60405180910390f35b61029c600480360381019061029791906124be565b610aa2565b005b6102b860048036038101906102b391906120d9565b610d5e565b6040516102c591906121f6565b60405180910390f35b6102e860048036038101906102e39190612244565b611122565b005b6102f261124a565b6040516102ff9190612280565b60405180910390f35b610322600480360381019061031d91906124fe565b611270565b005b61033e600480360381019061033991906120d9565b61132e565b60405161034b9190612280565b60405180910390f35b61036e600480360381019061036991906126e2565b611378565b60405161037b919061273a565b60405180910390f35b61039e600480360381019061039991906120d9565b611446565b6040516103af959493929190612770565b60405180910390f35b6103c06114c9565b6040516103cd919061273a565b60405180910390f35b6103f060048036038101906103eb91906120d9565b6114cf565b005b61040c60048036038101906104079190612959565b611687565b005b6005805461041b906129e4565b80601f0160208091040260200160405190810160405280929190818152602001828054610447906129e4565b80156104945780601f1061046957610100808354040283529160200191610494565b820191906000526020600020905b81548152906001019060200180831161047757829003601f168201915b505050505081565b7f000000000000000000000000000000000000000000000000000000000000000073ffffffffffffffffffffffffffffffffffffffff163373ffffffffffffffffffffffffffffffffffffffff161461054e57337f00000000000000000000000000000000000000000000000000000000000000006040517f1cf993f4000000000000000000000000000000000000000000000000000000008152600401610545929190612a15565b60405180910390fd5b6105588282611755565b5050565b606060048054905082106105a5576040517f08c379a000000000000000000000000000000000000000000000000000000000815260040161059c90612a8a565b60405180910390fd5b600482815481106105b9576105b8612aaa565b5b90600052602060002090600e020160090180548060200260200160405190810160405280929190818152602001828054801561064a57602002820191906000526020600020905b8160009054906101000a900473ffffffffffffffffffffffffffffffffffffffff1673ffffffffffffffffffffffffffffffffffffffff1681526020019060010190808311610600575b50505050509050919050565b600480549050811061069d576040517f08c379a000000000000000000000000000000000000000000000000000000000815260040161069490612a8a565b60405180910390fd5b60007f000000000000000000000000000000000000000000000000000000000000000073ffffffffffffffffffffffffffffffffffffffff16635d3b1d307f00000000000000000000000000000000000000000000000000000000000000007f00000000000000000000000000000000000000000000000000000000000000006003620186a060016040518663ffffffff1660e01b8152600401610745959493929190612b32565b6020604051808303816000875af1158015610764573d6000803e3d6000fd5b505050506040513d601f19601f820116820180604052508101906107889190612b9a565b90508160016000838152602001908152602001600020819055505050565b600760049054906101000a900473ffffffffffffffffffffffffffffffffffffffff1673ffffffffffffffffffffffffffffffffffffffff163373ffffffffffffffffffffffffffffffffffffffff1614610836576040517f08c379a000000000000000000000000000000000000000000000000000000000815260040161082d90612c13565b60405180910390fd5b6002819080600181540180825580915050600190039060005260206000200160009091909190916101000a81548173ffffffffffffffffffffffffffffffffffffffff021916908373ffffffffffffffffffffffffffffffffffffffff16021790555050565b600080600383815481106108b3576108b2612aaa565b5b9060005260206000200190508060000160009054906101000a900473ffffffffffffffffffffffffffffffffffffffff16915050919050565b600281815481106108fc57600080fd5b906000526020600020016000915054906101000a900473ffffffffffffffffffffffffffffffffffffffff1681565b600060606004805490508310610976576040517f08c379a000000000000000000000000000000000000000000000000000000000815260040161096d90612c7f565b60405180910390fd5b60006004848154811061098c5761098b612aaa565b5b90600052602060002090600e020190508060000160009054906101000a900473ffffffffffffffffffffffffffffffffffffffff168160010180805480602002602001604051908101604052809291908181526020016000905b82821015610a7e57838290600052602060002001805480602002602001604051908101604052809291908181526020018280548015610a6a57602002820191906000526020600020906000905b82829054906101000a900460ff1660ff1681526020019060010190602082600001049283019260010382029150808411610a335790505b5050505050815260200190600101906109e6565b5050505090509250925050915091565b60008054906101000a900463ffffffff1681565b60048281548110610ab657610ab5612aaa565b5b90600052602060002090600e020160080160003373ffffffffffffffffffffffffffffffffffffffff1673ffffffffffffffffffffffffffffffffffffffff16815260200190815260200160002060009054906101000a900460ff16610b51576040517f08c379a0000000000000000000000000000000000000000000000000000000008152600401610b4890612d11565b60405180910390fd5b60048281548110610b6557610b64612aaa565b5b90600052602060002090600e0201600201805490508160ff1610610bbe576040517f08c379a0000000000000000000000000000000000000000000000000000000008152600401610bb590612d7d565b60405180910390fd5b600060048381548110610bd457610bd3612aaa565b5b90600052602060002090600e020160080160003373ffffffffffffffffffffffffffffffffffffffff1673ffffffffffffffffffffffffffffffffffffffff16815260200190815260200160002060006101000a81548160ff021916908315150217905550600160048381548110610c4f57610c4e612aaa565b5b90600052602060002090600e0201600d0160009054906101000a900463ffffffff16610c7b9190612dcc565b60048381548110610c8f57610c8e612aaa565b5b90600052602060002090600e0201600d0160006101000a81548163ffffffff021916908363ffffffff160217905550610cca828260016117ee565b60008054906101000a900463ffffffff1663ffffffff1660048381548110610cf557610cf4612aaa565b5b90600052602060002090600e0201600d0160009054906101000a900463ffffffff1663ffffffff1603610d5a577f7359a420651c717884b6538e76a4caf3c10445bf7ce99e0995316a1a22f6eb4c82604051610d51919061273a565b60405180910390a15b5050565b606060038054905060008054906101000a900463ffffffff1663ffffffff161115610dbe576040517f08c379a0000000000000000000000000000000000000000000000000000000008152600401610db590612e76565b60405180910390fd5b6004805490508210610e05576040517f08c379a0000000000000000000000000000000000000000000000000000000008152600401610dfc90612a8a565b60405180910390fd5b610e0e826118a5565b60008060009054906101000a900463ffffffff1663ffffffff1667ffffffffffffffff811115610e4157610e40611f3a565b5b604051908082528060200260200182016040528015610e6f5781602001602082028036833780820191505090505b50905060005b60008054906101000a900463ffffffff1663ffffffff168163ffffffff161015610ffc5760048481548110610ead57610eac612aaa565b5b90600052602060002090600e0201600a018163ffffffff1681548110610ed657610ed5612aaa565b5b9060005260206000200160009054906101000a900473ffffffffffffffffffffffffffffffffffffffff16828263ffffffff1681518110610f1a57610f19612aaa565b5b602002602001019073ffffffffffffffffffffffffffffffffffffffff16908173ffffffffffffffffffffffffffffffffffffffff1681525050600160048581548110610f6a57610f69612aaa565b5b90600052602060002090600e02016008016000848463ffffffff1681518110610f9657610f95612aaa565b5b602002602001015173ffffffffffffffffffffffffffffffffffffffff1673ffffffffffffffffffffffffffffffffffffffff16815260200190815260200160002060006101000a81548160ff0219169083151502179055508080600101915050610e75565b50806004848154811061101257611011612aaa565b5b90600052602060002090600e02016009019080519060200190611036929190611b82565b507fc727820a44f6419025293074c50211bf8254772db8f8696de0a14d90681f812f8382604051611068929190612e96565b60405180910390a16004838154811061108457611083612aaa565b5b90600052602060002090600e020160090180548060200260200160405190810160405280929190818152602001828054801561111557602002820191906000526020600020905b8160009054906101000a900473ffffffffffffffffffffffffffffffffffffffff1673ffffffffffffffffffffffffffffffffffffffff16815260200190600101908083116110cb575b5050505050915050919050565b600760049054906101000a900473ffffffffffffffffffffffffffffffffffffffff1673ffffffffffffffffffffffffffffffffffffffff163373ffffffffffffffffffffffffffffffffffffffff16146111b2576040517f08c379a00000000000000000000000000000000000000000000000000000000081526004016111a990612f38565b60405180910390fd5b600360405180602001604052808373ffffffffffffffffffffffffffffffffffffffff168152509080600181540180825580915050600190039060005260206000200160009091909190915060008201518160000160006101000a81548173ffffffffffffffffffffffffffffffffffffffff021916908373ffffffffffffffffffffffffffffffffffffffff160217905550505050565b600760049054906101000a900473ffffffffffffffffffffffffffffffffffffffff1681565b600760049054906101000a900473ffffffffffffffffffffffffffffffffffffffff1673ffffffffffffffffffffffffffffffffffffffff163373ffffffffffffffffffffffffffffffffffffffff1614611300576040517f08c379a00000000000000000000000000000000000000000000000000000000081526004016112f790612fca565b60405180910390fd5b806004838154811061131557611314612aaa565b5b90600052602060002090600e0201600301819055505050565b6003818154811061133e57600080fd5b906000526020600020016000915090508060000160009054906101000a900473ffffffffffffffffffffffffffffffffffffffff16905081565b60008060046001816001815401808255809150500390600052602060002090600e02019050338160000160006101000a81548173ffffffffffffffffffffffffffffffffffffffff021916908373ffffffffffffffffffffffffffffffffffffffff160217905550828160010190805190602001906113f8929190611c0c565b506000600160048054905061140d9190612fea565b9050807fa60548f72b4d903f0447b295c585405a252b851618cb87aade049cf2a7cf988c60405160405180910390a28092505050919050565b6004818154811061145657600080fd5b90600052602060002090600e02016000915090508060000160009054906101000a900473ffffffffffffffffffffffffffffffffffffffff169080600301549080600b0160009054906101000a900460ff169080600c01549080600d0160009054906101000a900463ffffffff16905085565b60065481565b6000805b600483815481106114e7576114e6612aaa565b5b90600052602060002090600e0201600201805490508160ff16101561157f5760006004848154811061151c5761151b612aaa565b5b90600052602060002090600e020160060160008360ff1660ff16815260200190815260200160002060009054906101000a900463ffffffff1663ffffffff1690508083611569919061301e565b925050808061157790613052565b9150506114d3565b50806004838154811061159557611594612aaa565b5b90600052602060002090600e020160030154600484815481106115bb576115ba612aaa565b5b90600052602060002090600e0201600901805490506115da919061307b565b1115600483815481106115f0576115ef612aaa565b5b90600052602060002090600e0201600b0160006101000a81548160ff0219169083151502179055507fcf2e094a417fb9ddc4aab53efe164d3b66351971e47b3a24caf73ae37e91384d826004848154811061164e5761164d612aaa565b5b90600052602060002090600e0201600b0160009054906101000a900460ff1660405161167b9291906130bd565b60405180910390a15050565b600760049054906101000a900473ffffffffffffffffffffffffffffffffffffffff1673ffffffffffffffffffffffffffffffffffffffff163373ffffffffffffffffffffffffffffffffffffffff1614611717576040517f08c379a000000000000000000000000000000000000000000000000000000000815260040161170e90613132565b60405180910390fd5b806004838154811061172c5761172b612aaa565b5b90600052602060002090600e02016002019080519060200190611750929190611c6c565b505050565b6000600160008481526020019081526020016000205490508160008151811061178157611780612aaa565b5b60200260200101516004828154811061179d5761179c612aaa565b5b90600052602060002090600e0201600c01819055507fdd64eb55414afb8d008cfbec1a438e4c119baa71d06aec1c44565d6a3f158502816040516117e1919061273a565b60405180910390a1505050565b806004848154811061180357611802612aaa565b5b90600052602060002090600e020160060160008460ff1660ff16815260200190815260200160002060009054906101000a900463ffffffff166118469190612dcc565b6004848154811061185a57611859612aaa565b5b90600052602060002090600e020160060160008460ff1660ff16815260200190815260200160002060006101000a81548163ffffffff021916908363ffffffff160217905550505050565b60048054905081106118ec576040517f08c379a00000000000000000000000000000000000000000000000000000000081526004016118e390612a8a565b60405180910390fd5b600060038054905067ffffffffffffffff81111561190d5761190c611f3a565b5b60405190808252806020026020018201604052801561193b5781602001602082028036833780820191505090505b50905060005b6003805490508110156119ea576003818154811061196257611961612aaa565b5b9060005260206000200160000160009054906101000a900473ffffffffffffffffffffffffffffffffffffffff168282815181106119a3576119a2612aaa565b5b602002602001019073ffffffffffffffffffffffffffffffffffffffff16908173ffffffffffffffffffffffffffffffffffffffff16815250508080600101915050611941565b50600060048381548110611a0157611a00612aaa565b5b90600052602060002090600e0201600c0154905060005b8251811015611b42576000600182611a30919061301e565b8383604051602001611a43929190613152565b6040516020818303038152906040528051906020012060001c611a6691906131aa565b9050838181518110611a7b57611a7a612aaa565b5b6020026020010151848381518110611a9657611a95612aaa565b5b6020026020010151858481518110611ab157611ab0612aaa565b5b60200260200101868481518110611acb57611aca612aaa565b5b602002602001018273ffffffffffffffffffffffffffffffffffffffff1673ffffffffffffffffffffffffffffffffffffffff168152508273ffffffffffffffffffffffffffffffffffffffff1673ffffffffffffffffffffffffffffffffffffffff168152505050508080600101915050611a18565b508160048481548110611b5857611b57612aaa565b5b90600052602060002090600e0201600a019080519060200190611b7c929190611b82565b50505050565b828054828255906000526020600020908101928215611bfb579160200282015b82811115611bfa5782518260006101000a81548173ffffffffffffffffffffffffffffffffffffffff021916908373ffffffffffffffffffffffffffffffffffffffff16021790555091602001919060010190611ba2565b5b509050611c089190611cc5565b5090565b828054828255906000526020600020908101928215611c5b579160200282015b82811115611c5a578251829080519060200190611c4a929190611ce2565b5091602001919060010190611c2c565b5b509050611c689190611d89565b5090565b828054828255906000526020600020908101928215611cb4579160200282015b82811115611cb3578251829081611ca39190613387565b5091602001919060010190611c8c565b5b509050611cc19190611dad565b5090565b5b80821115611cde576000816000905550600101611cc6565b5090565b82805482825590600052602060002090601f01602090048101928215611d785791602002820160005b83821115611d4957835183826101000a81548160ff021916908360ff1602179055509260200192600101602081600001049283019260010302611d0b565b8015611d765782816101000a81549060ff0219169055600101602081600001049283019260010302611d49565b505b509050611d859190611cc5565b5090565b5b80821115611da95760008181611da09190611dd1565b50600101611d8a565b5090565b5b80821115611dcd5760008181611dc49190611df9565b50600101611dae565b5090565b50805460008255601f016020900490600052602060002090810190611df69190611cc5565b50565b508054611e05906129e4565b6000825580601f10611e175750611e36565b601f016020900490600052602060002090810190611e359190611cc5565b5b50565b600081519050919050565b600082825260208201905092915050565b60005b83811015611e73578082015181840152602081019050611e58565b60008484015250505050565b6000601f19601f8301169050919050565b6000611e9b82611e39565b611ea58185611e44565b9350611eb5818560208601611e55565b611ebe81611e7f565b840191505092915050565b60006020820190508181036000830152611ee38184611e90565b905092915050565b6000604051905090565b600080fd5b600080fd5b6000819050919050565b611f1281611eff565b8114611f1d57600080fd5b50565b600081359050611f2f81611f09565b92915050565b600080fd5b7f4e487b7100000000000000000000000000000000000000000000000000000000600052604160045260246000fd5b611f7282611e7f565b810181811067ffffffffffffffff82111715611f9157611f90611f3a565b5b80604052505050565b6000611fa4611eeb565b9050611fb08282611f69565b919050565b600067ffffffffffffffff821115611fd057611fcf611f3a565b5b602082029050602081019050919050565b600080fd5b6000611ff9611ff484611fb5565b611f9a565b9050808382526020820190506020840283018581111561201c5761201b611fe1565b5b835b8181101561204557806120318882611f20565b84526020840193505060208101905061201e565b5050509392505050565b600082601f83011261206457612063611f35565b5b8135612074848260208601611fe6565b91505092915050565b6000806040838503121561209457612093611ef5565b5b60006120a285828601611f20565b925050602083013567ffffffffffffffff8111156120c3576120c2611efa565b5b6120cf8582860161204f565b9150509250929050565b6000602082840312156120ef576120ee611ef5565b5b60006120fd84828501611f20565b91505092915050565b600081519050919050565b600082825260208201905092915050565b6000819050602082019050919050565b600073ffffffffffffffffffffffffffffffffffffffff82169050919050565b600061215d82612132565b9050919050565b61216d81612152565b82525050565b600061217f8383612164565b60208301905092915050565b6000602082019050919050565b60006121a382612106565b6121ad8185612111565b93506121b883612122565b8060005b838110156121e95781516121d08882612173565b97506121db8361218b565b9250506001810190506121bc565b5085935050505092915050565b600060208201905081810360008301526122108184612198565b905092915050565b61222181612152565b811461222c57600080fd5b50565b60008135905061223e81612218565b92915050565b60006020828403121561225a57612259611ef5565b5b60006122688482850161222f565b91505092915050565b61227a81612152565b82525050565b60006020820190506122956000830184612271565b92915050565b600081519050919050565b600082825260208201905092915050565b6000819050602082019050919050565b600081519050919050565b600082825260208201905092915050565b6000819050602082019050919050565b600060ff82169050919050565b612309816122f3565b82525050565b600061231b8383612300565b60208301905092915050565b6000602082019050919050565b600061233f826122c7565b61234981856122d2565b9350612354836122e3565b8060005b8381101561238557815161236c888261230f565b975061237783612327565b925050600181019050612358565b5085935050505092915050565b600061239e8383612334565b905092915050565b6000602082019050919050565b60006123be8261229b565b6123c881856122a6565b9350836020820285016123da856122b7565b8060005b8581101561241657848403895281516123f78582612392565b9450612402836123a6565b925060208a019950506001810190506123de565b50829750879550505050505092915050565b600060408201905061243d6000830185612271565b818103602083015261244f81846123b3565b90509392505050565b600063ffffffff82169050919050565b61247181612458565b82525050565b600060208201905061248c6000830184612468565b92915050565b61249b816122f3565b81146124a657600080fd5b50565b6000813590506124b881612492565b92915050565b600080604083850312156124d5576124d4611ef5565b5b60006124e385828601611f20565b92505060206124f4858286016124a9565b9150509250929050565b6000806040838503121561251557612514611ef5565b5b600061252385828601611f20565b925050602061253485828601611f20565b9150509250929050565b600067ffffffffffffffff82111561255957612558611f3a565b5b602082029050602081019050919050565b600067ffffffffffffffff82111561258557612584611f3a565b5b602082029050602081019050919050565b60006125a96125a48461256a565b611f9a565b905080838252602082019050602084028301858111156125cc576125cb611fe1565b5b835b818110156125f557806125e188826124a9565b8452602084019350506020810190506125ce565b5050509392505050565b600082601f83011261261457612613611f35565b5b8135612624848260208601612596565b91505092915050565b600061264061263b8461253e565b611f9a565b9050808382526020820190506020840283018581111561266357612662611fe1565b5b835b818110156126aa57803567ffffffffffffffff81111561268857612687611f35565b5b80860161269589826125ff565b85526020850194505050602081019050612665565b5050509392505050565b600082601f8301126126c9576126c8611f35565b5b81356126d984826020860161262d565b91505092915050565b6000602082840312156126f8576126f7611ef5565b5b600082013567ffffffffffffffff81111561271657612715611efa565b5b612722848285016126b4565b91505092915050565b61273481611eff565b82525050565b600060208201905061274f600083018461272b565b92915050565b60008115159050919050565b61276a81612755565b82525050565b600060a0820190506127856000830188612271565b612792602083018761272b565b61279f6040830186612761565b6127ac606083018561272b565b6127b96080830184612468565b9695505050505050565b600067ffffffffffffffff8211156127de576127dd611f3a565b5b602082029050602081019050919050565b600080fd5b600067ffffffffffffffff82111561280f5761280e611f3a565b5b61281882611e7f565b9050602081019050919050565b82818337600083830152505050565b6000612847612842846127f4565b611f9a565b905082815260208101848484011115612863576128626127ef565b5b61286e848285612825565b509392505050565b600082601f83011261288b5761288a611f35565b5b813561289b848260208601612834565b91505092915050565b60006128b76128b2846127c3565b611f9a565b905080838252602082019050602084028301858111156128da576128d9611fe1565b5b835b8181101561292157803567ffffffffffffffff8111156128ff576128fe611f35565b5b80860161290c8982612876565b855260208501945050506020810190506128dc565b5050509392505050565b600082601f8301126129405761293f611f35565b5b81356129508482602086016128a4565b91505092915050565b600080604083850312156129705761296f611ef5565b5b600061297e85828601611f20565b925050602083013567ffffffffffffffff81111561299f5761299e611efa565b5b6129ab8582860161292b565b9150509250929050565b7f4e487b7100000000000000000000000000000000000000000000000000000000600052602260045260246000fd5b600060028204905060018216806129fc57607f821691505b602082108103612a0f57612a0e6129b5565b5b50919050565b6000604082019050612a2a6000830185612271565b612a376020830184612271565b9392505050565b7f496e76616c6964207375626d697373696f6e2049440000000000000000000000600082015250565b6000612a74601583611e44565b9150612a7f82612a3e565b602082019050919050565b60006020820190508181036000830152612aa381612a67565b9050919050565b7f4e487b7100000000000000000000000000000000000000000000000000000000600052603260045260246000fd5b6000819050919050565b612aec81612ad9565b82525050565b600067ffffffffffffffff82169050919050565b612b0f81612af2565b82525050565b600061ffff82169050919050565b612b2c81612b15565b82525050565b600060a082019050612b476000830188612ae3565b612b546020830187612b06565b612b616040830186612b23565b612b6e6060830185612468565b612b7b6080830184612468565b9695505050505050565b600081519050612b9481611f09565b92915050565b600060208284031215612bb057612baf611ef5565b5b6000612bbe84828501612b85565b91505092915050565b7f4f6e6c7920746865206f776e65722063616e2061646420617574686f72732e00600082015250565b6000612bfd601f83611e44565b9150612c0882612bc7565b602082019050919050565b60006020820190508181036000830152612c2c81612bf0565b9050919050565b7f5375626d697373696f6e20646f6573206e6f742065786973742e000000000000600082015250565b6000612c69601a83611e44565b9150612c7482612c33565b602082019050919050565b60006020820190508181036000830152612c9881612c5c565b9050919050565b7f4f6e6c792073656c6563746564207265766965776572732063616e206361737460008201527f20766f7465730000000000000000000000000000000000000000000000000000602082015250565b6000612cfb602683611e44565b9150612d0682612c9f565b604082019050919050565b60006020820190508181036000830152612d2a81612cee565b9050919050565b7f53656c65637420612076616c6964206f7074696f6e0000000000000000000000600082015250565b6000612d67601583611e44565b9150612d7282612d31565b602082019050919050565b60006020820190508181036000830152612d9681612d5a565b9050919050565b7f4e487b7100000000000000000000000000000000000000000000000000000000600052601160045260246000fd5b6000612dd782612458565b9150612de283612458565b9250828201905063ffffffff811115612dfe57612dfd612d9d565b5b92915050565b7f4e6f7420656e6f7567682072657669657765727320746f20726576696577207460008201527f686520736f6e6700000000000000000000000000000000000000000000000000602082015250565b6000612e60602783611e44565b9150612e6b82612e04565b604082019050919050565b60006020820190508181036000830152612e8f81612e53565b9050919050565b6000604082019050612eab600083018561272b565b8181036020830152612ebd8184612198565b90509392505050565b7f4f6e6c7920746865206f776e65722063616e206164642072657669657765727360008201527f2e00000000000000000000000000000000000000000000000000000000000000602082015250565b6000612f22602183611e44565b9150612f2d82612ec6565b604082019050919050565b60006020820190508181036000830152612f5181612f15565b9050919050565b7f4f6e6c7920746865206f776e65722063616e207365742074686520746872657360008201527f686f6c6420746f20706173732e00000000000000000000000000000000000000602082015250565b6000612fb4602d83611e44565b9150612fbf82612f58565b604082019050919050565b60006020820190508181036000830152612fe381612fa7565b9050919050565b6000612ff582611eff565b915061300083611eff565b925082820390508181111561301857613017612d9d565b5b92915050565b600061302982611eff565b915061303483611eff565b925082820190508082111561304c5761304b612d9d565b5b92915050565b600061305d826122f3565b915060ff82036130705761306f612d9d565b5b600182019050919050565b600061308682611eff565b915061309183611eff565b925082820261309f81611eff565b915082820484148315176130b6576130b5612d9d565b5b5092915050565b60006040820190506130d2600083018561272b565b6130df6020830184612761565b9392505050565b7f4f6e6c7920746865206f776e65722063616e20736574206f7074696f6e732e00600082015250565b600061311c601f83611e44565b9150613127826130e6565b602082019050919050565b6000602082019050818103600083015261314b8161310f565b9050919050565b6000604082019050613167600083018561272b565b613174602083018461272b565b9392505050565b7f4e487b7100000000000000000000000000000000000000000000000000000000600052601260045260246000fd5b60006131b582611eff565b91506131c083611eff565b9250826131d0576131cf61317b565b5b828206905092915050565b60008190508160005260206000209050919050565b60006020601f8301049050919050565b600082821b905092915050565b60006008830261323d7fffffffffffffffffffffffffffffffffffffffffffffffffffffffffffffffff82613200565b6132478683613200565b95508019841693508086168417925050509392505050565b6000819050919050565b600061328461327f61327a84611eff565b61325f565b611eff565b9050919050565b6000819050919050565b61329e83613269565b6132b26132aa8261328b565b84845461320d565b825550505050565b600090565b6132c76132ba565b6132d2818484613295565b505050565b5b818110156132f6576132eb6000826132bf565b6001810190506132d8565b5050565b601f82111561333b5761330c816131db565b613315846131f0565b81016020851015613324578190505b613338613330856131f0565b8301826132d7565b50505b505050565b600082821c905092915050565b600061335e60001984600802613340565b1980831691505092915050565b6000613377838361334d565b9150826002028217905092915050565b61339082611e39565b67ffffffffffffffff8111156133a9576133a8611f3a565b5b6133b382546129e4565b6133be8282856132fa565b600060209050601f8311600181146133f157600084156133df578287015190505b6133e9858261336b565b865550613451565b601f1984166133ff866131db565b60005b8281101561342757848901518255600182019150602085019450602081019050613402565b868310156134445784890151613440601f89168261334d565b8355505b6001600288020188555050505b50505050505056fea264697066735822122042cb44a69b86e747dd8f28c2c7102e38f1d8c8adf74e364228147c81f88c2b0d64736f6c63430008180033",
  "linkReferences": {},
  "deployedLinkReferences": {}
}